{
	"contracts/FeeCalculator.sol": {
		"TaxiFeeCalculator": {
			"abi": [
				{
					"inputs": [
						{
							"internalType": "uint256",
							"name": "distance",
							"type": "uint256"
						}
					],
					"name": "calculateFee",
					"outputs": [
						{
							"internalType": "uint256",
							"name": "fee",
							"type": "uint256"
						}
					],
					"stateMutability": "pure",
					"type": "function"
				}
			],
			"devdoc": {
				"methods": {}
			},
			"evm": {
				"assembly": "    /* \"contracts/FeeCalculator.sol\":64:606  contract TaxiFeeCalculator {\r... */\n  mstore(0x40, 0x80)\n  callvalue\n  dup1\n  iszero\n  tag_1\n  jumpi\n  0x00\n  dup1\n  revert\ntag_1:\n  pop\n  dataSize(sub_0)\n  dup1\n  dataOffset(sub_0)\n  0x00\n  codecopy\n  0x00\n  return\nstop\n\nsub_0: assembly {\n        /* \"contracts/FeeCalculator.sol\":64:606  contract TaxiFeeCalculator {\r... */\n      mstore(0x40, 0x80)\n      callvalue\n      dup1\n      iszero\n      tag_1\n      jumpi\n      0x00\n      dup1\n      revert\n    tag_1:\n      pop\n      jumpi(tag_2, lt(calldatasize, 0x04))\n      shr(0xe0, calldataload(0x00))\n      dup1\n      0x99a5d747\n      eq\n      tag_3\n      jumpi\n    tag_2:\n      0x00\n      dup1\n      revert\n        /* \"contracts/FeeCalculator.sol\":174:603  function calculateFee(uint256 distance) external pure returns (uint256 fee) {\r... */\n    tag_3:\n      tag_4\n      0x04\n      dup1\n      calldatasize\n      sub\n      0x20\n      dup2\n      lt\n      iszero\n      tag_5\n      jumpi\n      0x00\n      dup1\n      revert\n    tag_5:\n      dup2\n      add\n      swap1\n      dup1\n      dup1\n      calldataload\n      swap1\n      0x20\n      add\n      swap1\n      swap3\n      swap2\n      swap1\n      pop\n      pop\n      pop\n      tag_6\n      jump\t// in\n    tag_4:\n      mload(0x40)\n      dup1\n      dup3\n      dup2\n      mstore\n      0x20\n      add\n      swap2\n      pop\n      pop\n      mload(0x40)\n      dup1\n      swap2\n      sub\n      swap1\n      return\n    tag_6:\n        /* \"contracts/FeeCalculator.sol\":237:248  uint256 fee */\n      0x00\n        /* \"contracts/FeeCalculator.sol\":277:279  10 */\n      0x0a\n        /* \"contracts/FeeCalculator.sol\":265:273  distance */\n      dup3\n        /* \"contracts/FeeCalculator.sol\":265:279  distance <= 10 */\n      gt\n        /* \"contracts/FeeCalculator.sol\":261:573  if (distance <= 10) {\r... */\n      tag_8\n      jumpi\n        /* \"contracts/FeeCalculator.sol\":395:404  0.5 ether */\n      0x06f05b59d3b20000\n        /* \"contracts/FeeCalculator.sol\":384:392  distance */\n      dup3\n        /* \"contracts/FeeCalculator.sol\":384:404  distance * 0.5 ether */\n      mul\n        /* \"contracts/FeeCalculator.sol\":378:404  fee = distance * 0.5 ether */\n      swap1\n      pop\n        /* \"contracts/FeeCalculator.sol\":261:573  if (distance <= 10) {\r... */\n      jump(tag_9)\n    tag_8:\n        /* \"contracts/FeeCalculator.sol\":551:560  0.7 ether */\n      0x09b6e64a8ec60000\n        /* \"contracts/FeeCalculator.sol\":545:547  10 */\n      0x0a\n        /* \"contracts/FeeCalculator.sol\":534:542  distance */\n      dup4\n        /* \"contracts/FeeCalculator.sol\":534:547  distance - 10 */\n      sub\n        /* \"contracts/FeeCalculator.sol\":533:560  (distance - 10) * 0.7 ether */\n      mul\n        /* \"contracts/FeeCalculator.sol\":514:528  10 * 0.5 ether */\n      0x4563918244f40000\n        /* \"contracts/FeeCalculator.sol\":513:561  (10 * 0.5 ether) + ((distance - 10) * 0.7 ether) */\n      add\n        /* \"contracts/FeeCalculator.sol\":507:561  fee = (10 * 0.5 ether) + ((distance - 10) * 0.7 ether) */\n      swap1\n      pop\n        /* \"contracts/FeeCalculator.sol\":261:573  if (distance <= 10) {\r... */\n    tag_9:\n        /* \"contracts/FeeCalculator.sol\":592:595  fee */\n      dup1\n        /* \"contracts/FeeCalculator.sol\":585:595  return fee */\n      swap1\n      pop\n        /* \"contracts/FeeCalculator.sol\":174:603  function calculateFee(uint256 distance) external pure returns (uint256 fee) {\r... */\n      swap2\n      swap1\n      pop\n      jump\t// out\n\n    auxdata: 0xa26469706673582212206bca352c8ccb5ea4622e6356d8b9cb555dcc313f5742db4f3e28ddec995f468564736f6c63430006090033\n}\n",
				"bytecode": {
					"linkReferences": {},
					"object": "608060405234801561001057600080fd5b5060df8061001f6000396000f3fe6080604052348015600f57600080fd5b506004361060285760003560e01c806399a5d74714602d575b600080fd5b605660048036036020811015604157600080fd5b8101908080359060200190929190505050606c565b6040518082815260200191505060405180910390f35b6000600a82116086576706f05b59d3b200008202905060a1565b6709b6e64a8ec60000600a830302674563918244f400000190505b80905091905056fea26469706673582212206bca352c8ccb5ea4622e6356d8b9cb555dcc313f5742db4f3e28ddec995f468564736f6c63430006090033",
					"opcodes": "PUSH1 0x80 PUSH1 0x40 MSTORE CALLVALUE DUP1 ISZERO PUSH2 0x10 JUMPI PUSH1 0x0 DUP1 REVERT JUMPDEST POP PUSH1 0xDF DUP1 PUSH2 0x1F PUSH1 0x0 CODECOPY PUSH1 0x0 RETURN INVALID PUSH1 0x80 PUSH1 0x40 MSTORE CALLVALUE DUP1 ISZERO PUSH1 0xF JUMPI PUSH1 0x0 DUP1 REVERT JUMPDEST POP PUSH1 0x4 CALLDATASIZE LT PUSH1 0x28 JUMPI PUSH1 0x0 CALLDATALOAD PUSH1 0xE0 SHR DUP1 PUSH4 0x99A5D747 EQ PUSH1 0x2D JUMPI JUMPDEST PUSH1 0x0 DUP1 REVERT JUMPDEST PUSH1 0x56 PUSH1 0x4 DUP1 CALLDATASIZE SUB PUSH1 0x20 DUP2 LT ISZERO PUSH1 0x41 JUMPI PUSH1 0x0 DUP1 REVERT JUMPDEST DUP2 ADD SWAP1 DUP1 DUP1 CALLDATALOAD SWAP1 PUSH1 0x20 ADD SWAP1 SWAP3 SWAP2 SWAP1 POP POP POP PUSH1 0x6C JUMP JUMPDEST PUSH1 0x40 MLOAD DUP1 DUP3 DUP2 MSTORE PUSH1 0x20 ADD SWAP2 POP POP PUSH1 0x40 MLOAD DUP1 SWAP2 SUB SWAP1 RETURN JUMPDEST PUSH1 0x0 PUSH1 0xA DUP3 GT PUSH1 0x86 JUMPI PUSH8 0x6F05B59D3B20000 DUP3 MUL SWAP1 POP PUSH1 0xA1 JUMP JUMPDEST PUSH8 0x9B6E64A8EC60000 PUSH1 0xA DUP4 SUB MUL PUSH8 0x4563918244F40000 ADD SWAP1 POP JUMPDEST DUP1 SWAP1 POP SWAP2 SWAP1 POP JUMP INVALID LOG2 PUSH5 0x6970667358 0x22 SLT KECCAK256 PUSH12 0xCA352C8CCB5EA4622E6356D8 0xB9 0xCB SSTORE 0x5D 0xCC BALANCE EXTCODEHASH JUMPI TIMESTAMP 0xDB 0x4F RETURNDATACOPY 0x28 0xDD 0xEC SWAP10 0x5F CHAINID DUP6 PUSH5 0x736F6C6343 STOP MOD MULMOD STOP CALLER "
				},
				"gasEstimates": {
					"creation": {
						"codeDepositCost": "44600",
						"executionCost": "93",
						"totalCost": "44693"
					},
					"external": {
						"calculateFee(uint256)": "330"
					}
				},
				"methodIdentifiers": {
					"calculateFee(uint256)": "99a5d747"
				}
			},
			"storageLayout": {
				"storage": [],
				"types": null
			},
			"userdoc": {
				"methods": {}
			}
		}
	}
}