{
	"contracts/TaxiBase.sol": {
		"TaxiRegistry": {
			"abi": [
				{
					"inputs": [],
					"stateMutability": "nonpayable",
					"type": "constructor"
				},
				{
					"anonymous": false,
					"inputs": [
						{
							"indexed": true,
							"internalType": "address",
							"name": "driverAddress",
							"type": "address"
						},
						{
							"indexed": false,
							"internalType": "string",
							"name": "name",
							"type": "string"
						}
					],
					"name": "TaxiDriverRegistered",
					"type": "event"
				},
				{
					"inputs": [],
					"name": "getRegisteredDrivers",
					"outputs": [
						{
							"internalType": "address[]",
							"name": "driverAddresses",
							"type": "address[]"
						},
						{
							"internalType": "string[]",
							"name": "driverNames",
							"type": "string[]"
						}
					],
					"stateMutability": "view",
					"type": "function"
				},
				{
					"inputs": [],
					"name": "owner",
					"outputs": [
						{
							"internalType": "address",
							"name": "",
							"type": "address"
						}
					],
					"stateMutability": "view",
					"type": "function"
				},
				{
					"inputs": [
						{
							"internalType": "string",
							"name": "_name",
							"type": "string"
						}
					],
					"name": "registerTaxiDriver",
					"outputs": [],
					"stateMutability": "nonpayable",
					"type": "function"
				},
				{
					"inputs": [
						{
							"internalType": "address",
							"name": "",
							"type": "address"
						}
					],
					"name": "taxiDrivers",
					"outputs": [
						{
							"internalType": "string",
							"name": "name",
							"type": "string"
						},
						{
							"internalType": "address",
							"name": "driverAddress",
							"type": "address"
						}
					],
					"stateMutability": "view",
					"type": "function"
				}
			],
			"devdoc": {
				"methods": {}
			},
			"evm": {
				"assembly": "    /* \"contracts/TaxiBase.sol\":101:2930  contract TaxiRegistry {\r... */\n  mstore(0x40, 0x80)\n    /* \"contracts/TaxiBase.sol\":561:789  constructor() public {\r... */\n  callvalue\n  dup1\n  iszero\n  tag_1\n  jumpi\n  0x00\n  dup1\n  revert\ntag_1:\n  pop\n    /* \"contracts/TaxiBase.sol\":601:611  msg.sender */\n  caller\n    /* \"contracts/TaxiBase.sol\":593:598  owner */\n  0x00\n  dup1\n    /* \"contracts/TaxiBase.sol\":593:611  owner = msg.sender */\n  0x0100\n  exp\n  dup2\n  sload\n  dup2\n  0xffffffffffffffffffffffffffffffffffffffff\n  mul\n  not\n  and\n  swap1\n  dup4\n  0xffffffffffffffffffffffffffffffffffffffff\n  and\n  mul\n  or\n  swap1\n  sstore\n  pop\n    /* \"contracts/TaxiBase.sol\":643:729  TaxiDriver({\r... */\n  mload(0x40)\n  dup1\n  0x40\n  add\n  0x40\n  mstore\n  dup1\n  mload(0x40)\n  dup1\n  0x40\n  add\n  0x40\n  mstore\n  dup1\n  0x05\n  dup2\n  mstore\n  0x20\n  add\n  0x4f776e6572000000000000000000000000000000000000000000000000000000\n  dup2\n  mstore\n  pop\n  dup2\n  mstore\n  0x20\n  add\n    /* \"contracts/TaxiBase.sol\":712:717  owner */\n  0x00\n  dup1\n  swap1\n  sload\n  swap1\n  0x0100\n  exp\n  swap1\n  div\n  0xffffffffffffffffffffffffffffffffffffffff\n  and\n    /* \"contracts/TaxiBase.sol\":643:729  TaxiDriver({\r... */\n  0xffffffffffffffffffffffffffffffffffffffff\n  and\n  dup2\n  mstore\n  pop\n    /* \"contracts/TaxiBase.sol\":622:633  taxiDrivers */\n  0x01\n    /* \"contracts/TaxiBase.sol\":622:640  taxiDrivers[owner] */\n  0x00\n    /* \"contracts/TaxiBase.sol\":634:639  owner */\n  dup1\n  0x00\n  swap1\n  sload\n  swap1\n  0x0100\n  exp\n  swap1\n  div\n  0xffffffffffffffffffffffffffffffffffffffff\n  and\n    /* \"contracts/TaxiBase.sol\":622:640  taxiDrivers[owner] */\n  0xffffffffffffffffffffffffffffffffffffffff\n  and\n  0xffffffffffffffffffffffffffffffffffffffff\n  and\n  dup2\n  mstore\n  0x20\n  add\n  swap1\n  dup2\n  mstore\n  0x20\n  add\n  0x00\n  keccak256\n    /* \"contracts/TaxiBase.sol\":622:729  taxiDrivers[owner] = TaxiDriver({\r... */\n  0x00\n  dup3\n  add\n  mload\n  dup2\n  0x00\n  add\n  swap1\n  dup1\n  mload\n  swap1\n  0x20\n  add\n  swap1\n  tag_4\n  swap3\n  swap2\n  swap1\n  tag_5\n  jump\t// in\ntag_4:\n  pop\n  0x20\n  dup3\n  add\n  mload\n  dup2\n  0x01\n  add\n  exp(0x0100, 0x00)\n  dup2\n  sload\n  dup2\n  0xffffffffffffffffffffffffffffffffffffffff\n  mul\n  not\n  and\n  swap1\n  dup4\n  0xffffffffffffffffffffffffffffffffffffffff\n  and\n  mul\n  or\n  swap1\n  sstore\n  pop\n  swap1\n  pop\n  pop\n    /* \"contracts/TaxiBase.sol\":766:771  owner */\n  0x00\n  dup1\n  swap1\n  sload\n  swap1\n  0x0100\n  exp\n  swap1\n  div\n  0xffffffffffffffffffffffffffffffffffffffff\n  and\n    /* \"contracts/TaxiBase.sol\":745:781  TaxiDriverRegistered(owner, \"Owner\") */\n  0xffffffffffffffffffffffffffffffffffffffff\n  and\n  0x95678808309e69e2ba08a9f9020f870206d48a2950d5b298533653dd50404cad\n  mload(0x40)\n  tag_6\n  swap1\n  jump(tag_7)\ntag_6:\n  mload(0x40)\n  dup1\n  swap2\n  sub\n  swap1\n  log2\n    /* \"contracts/TaxiBase.sol\":101:2930  contract TaxiRegistry {\r... */\n  jump(tag_8)\ntag_5:\n  dup3\n  dup1\n  sload\n  0x01\n  dup2\n  0x01\n  and\n  iszero\n  0x0100\n  mul\n  sub\n  and\n  0x02\n  swap1\n  div\n  swap1\n  0x00\n  mstore\n  keccak256(0x00, 0x20)\n  swap1\n  0x1f\n  add\n  0x20\n  swap1\n  div\n  dup2\n  add\n  swap3\n  dup3\n  0x1f\n  lt\n  tag_10\n  jumpi\n  dup1\n  mload\n  not(0xff)\n  and\n  dup4\n  dup1\n  add\n  or\n  dup6\n  sstore\n  jump(tag_9)\ntag_10:\n  dup3\n  dup1\n  add\n  0x01\n  add\n  dup6\n  sstore\n  dup3\n  iszero\n  tag_9\n  jumpi\n  swap2\n  dup3\n  add\ntag_11:\n  dup3\n  dup2\n  gt\n  iszero\n  tag_12\n  jumpi\n  dup3\n  mload\n  dup3\n  sstore\n  swap2\n  0x20\n  add\n  swap2\n  swap1\n  0x01\n  add\n  swap1\n  jump(tag_11)\ntag_12:\ntag_9:\n  pop\n  swap1\n  pop\n  tag_13\n  swap2\n  swap1\n  tag_14\n  jump\t// in\ntag_13:\n  pop\n  swap1\n  jump\t// out\ntag_14:\n  tag_15\n  swap2\n  swap1\ntag_16:\n  dup1\n  dup3\n  gt\n  iszero\n  tag_17\n  jumpi\n  0x00\n  dup2\n  0x00\n  swap1\n  sstore\n  pop\n  0x01\n  add\n  jump(tag_16)\ntag_17:\n  pop\n  swap1\n  jump\ntag_15:\n  swap1\n  jump\t// out\n    /* \"--CODEGEN--\":6:310   */\ntag_19:\n  0x00\n    /* \"--CODEGEN--\":166:232   */\n  tag_21\n    /* \"--CODEGEN--\":230:231   */\n  0x05\n    /* \"--CODEGEN--\":225:228   */\n  dup4\n    /* \"--CODEGEN--\":166:232   */\n  jump(tag_22)\ntag_21:\n    /* \"--CODEGEN--\":159:232   */\n  swap2\n  pop\n    /* \"--CODEGEN--\":265:272   */\n  0x4f776e6572000000000000000000000000000000000000000000000000000000\n    /* \"--CODEGEN--\":261:262   */\n  0x00\n    /* \"--CODEGEN--\":256:259   */\n  dup4\n    /* \"--CODEGEN--\":252:263   */\n  add\n    /* \"--CODEGEN--\":245:273   */\n  mstore\n    /* \"--CODEGEN--\":301:303   */\n  0x20\n    /* \"--CODEGEN--\":296:299   */\n  dup3\n    /* \"--CODEGEN--\":292:304   */\n  add\n    /* \"--CODEGEN--\":285:304   */\n  swap1\n  pop\n    /* \"--CODEGEN--\":152:310   */\n  swap2\n  swap1\n  pop\n  jump\n    /* \"--CODEGEN--\":318:734   */\ntag_7:\n  0x00\n    /* \"--CODEGEN--\":518:520   */\n  0x20\n    /* \"--CODEGEN--\":507:516   */\n  dup3\n    /* \"--CODEGEN--\":503:521   */\n  add\n    /* \"--CODEGEN--\":495:521   */\n  swap1\n  pop\n    /* \"--CODEGEN--\":568:577   */\n  dup2\n    /* \"--CODEGEN--\":562:566   */\n  dup2\n    /* \"--CODEGEN--\":558:578   */\n  sub\n    /* \"--CODEGEN--\":554:555   */\n  0x00\n    /* \"--CODEGEN--\":543:552   */\n  dup4\n    /* \"--CODEGEN--\":539:556   */\n  add\n    /* \"--CODEGEN--\":532:579   */\n  mstore\n    /* \"--CODEGEN--\":593:724   */\n  tag_24\n    /* \"--CODEGEN--\":719:723   */\n  dup2\n    /* \"--CODEGEN--\":593:724   */\n  jump(tag_19)\ntag_24:\n    /* \"--CODEGEN--\":585:724   */\n  swap1\n  pop\n    /* \"--CODEGEN--\":489:734   */\n  swap2\n  swap1\n  pop\n  jump\n    /* \"--CODEGEN--\":742:905   */\ntag_22:\n  0x00\n    /* \"--CODEGEN--\":857:863   */\n  dup3\n    /* \"--CODEGEN--\":852:855   */\n  dup3\n    /* \"--CODEGEN--\":845:864   */\n  mstore\n    /* \"--CODEGEN--\":894:898   */\n  0x20\n    /* \"--CODEGEN--\":889:892   */\n  dup3\n    /* \"--CODEGEN--\":885:899   */\n  add\n    /* \"--CODEGEN--\":870:899   */\n  swap1\n  pop\n    /* \"--CODEGEN--\":838:905   */\n  swap3\n  swap2\n  pop\n  pop\n  jump\n    /* \"contracts/TaxiBase.sol\":101:2930  contract TaxiRegistry {\r... */\ntag_8:\n  dataSize(sub_0)\n  dup1\n  dataOffset(sub_0)\n  0x00\n  codecopy\n  0x00\n  return\nstop\n\nsub_0: assembly {\n        /* \"contracts/TaxiBase.sol\":101:2930  contract TaxiRegistry {\r... */\n      mstore(0x40, 0x80)\n      callvalue\n      dup1\n      iszero\n      tag_1\n      jumpi\n      0x00\n      dup1\n      revert\n    tag_1:\n      pop\n      jumpi(tag_2, lt(calldatasize, 0x04))\n      shr(0xe0, calldataload(0x00))\n      dup1\n      0x21ac4573\n      eq\n      tag_3\n      jumpi\n      dup1\n      0x63c1fd95\n      eq\n      tag_4\n      jumpi\n      dup1\n      0x687dc1db\n      eq\n      tag_5\n      jumpi\n      dup1\n      0x8da5cb5b\n      eq\n      tag_6\n      jumpi\n    tag_2:\n      0x00\n      dup1\n      revert\n        /* \"contracts/TaxiBase.sol\":1037:1614  function registerTaxiDriver(string memory _name) external {\r... */\n    tag_3:\n      tag_7\n      0x04\n      dup1\n      calldatasize\n      sub\n      dup2\n      add\n      swap1\n      tag_8\n      swap2\n      swap1\n      jump(tag_9)\n    tag_8:\n      tag_10\n      jump\t// in\n    tag_7:\n      stop\n        /* \"contracts/TaxiBase.sol\":330:379  mapping(address => TaxiDriver) public taxiDrivers */\n    tag_4:\n      tag_11\n      0x04\n      dup1\n      calldatasize\n      sub\n      dup2\n      add\n      swap1\n      tag_12\n      swap2\n      swap1\n      jump(tag_13)\n    tag_12:\n      tag_14\n      jump\t// in\n    tag_11:\n      mload(0x40)\n      tag_15\n      swap3\n      swap2\n      swap1\n      jump(tag_16)\n    tag_15:\n      mload(0x40)\n      dup1\n      swap2\n      sub\n      swap1\n      return\n        /* \"contracts/TaxiBase.sol\":1915:2927  function getRegisteredDrivers() external view returns (address[] memory driverAddresses, string[] memory driverNames) {\r... */\n    tag_5:\n      tag_17\n      tag_18\n      jump\t// in\n    tag_17:\n      mload(0x40)\n      tag_19\n      swap3\n      swap2\n      swap1\n      jump(tag_20)\n    tag_19:\n      mload(0x40)\n      dup1\n      swap2\n      sub\n      swap1\n      return\n        /* \"contracts/TaxiBase.sol\":130:150  address public owner */\n    tag_6:\n      tag_21\n      tag_22\n      jump\t// in\n    tag_21:\n      mload(0x40)\n      tag_23\n      swap2\n      swap1\n      jump(tag_24)\n    tag_23:\n      mload(0x40)\n      dup1\n      swap2\n      sub\n      swap1\n      return\n        /* \"contracts/TaxiBase.sol\":1037:1614  function registerTaxiDriver(string memory _name) external {\r... */\n    tag_10:\n        /* \"contracts/TaxiBase.sol\":1128:1133  owner */\n      0x00\n      dup1\n      swap1\n      sload\n      swap1\n      0x0100\n      exp\n      swap1\n      div\n      0xffffffffffffffffffffffffffffffffffffffff\n      and\n        /* \"contracts/TaxiBase.sol\":1114:1133  msg.sender != owner */\n      0xffffffffffffffffffffffffffffffffffffffff\n      and\n        /* \"contracts/TaxiBase.sol\":1114:1124  msg.sender */\n      caller\n        /* \"contracts/TaxiBase.sol\":1114:1133  msg.sender != owner */\n      0xffffffffffffffffffffffffffffffffffffffff\n      and\n      eq\n      iszero\n        /* \"contracts/TaxiBase.sol\":1106:1176  require(msg.sender != owner, \"Owner cannot register as a taxi driver\") */\n      tag_26\n      jumpi\n      mload(0x40)\n      0x08c379a000000000000000000000000000000000000000000000000000000000\n      dup2\n      mstore\n      0x04\n      add\n      tag_27\n      swap1\n      jump(tag_28)\n    tag_27:\n      mload(0x40)\n      dup1\n      swap2\n      sub\n      swap1\n      revert\n    tag_26:\n        /* \"contracts/TaxiBase.sol\":1217:1218  0 */\n      0x00\n        /* \"contracts/TaxiBase.sol\":1201:1206  _name */\n      dup2\n        /* \"contracts/TaxiBase.sol\":1195:1214  bytes(_name).length */\n      mload\n        /* \"contracts/TaxiBase.sol\":1195:1218  bytes(_name).length > 0 */\n      gt\n        /* \"contracts/TaxiBase.sol\":1187:1243  require(bytes(_name).length > 0, \"Name cannot be empty\") */\n      tag_29\n      jumpi\n      mload(0x40)\n      0x08c379a000000000000000000000000000000000000000000000000000000000\n      dup2\n      mstore\n      0x04\n      add\n      tag_30\n      swap1\n      jump(tag_31)\n    tag_30:\n      mload(0x40)\n      dup1\n      swap2\n      sub\n      swap1\n      revert\n    tag_29:\n        /* \"contracts/TaxiBase.sol\":1311:1312  0 */\n      0x00\n        /* \"contracts/TaxiBase.sol\":1262:1313  taxiDrivers[msg.sender].driverAddress == address(0) */\n      0xffffffffffffffffffffffffffffffffffffffff\n      and\n        /* \"contracts/TaxiBase.sol\":1262:1273  taxiDrivers */\n      0x01\n        /* \"contracts/TaxiBase.sol\":1262:1285  taxiDrivers[msg.sender] */\n      0x00\n        /* \"contracts/TaxiBase.sol\":1274:1284  msg.sender */\n      caller\n        /* \"contracts/TaxiBase.sol\":1262:1285  taxiDrivers[msg.sender] */\n      0xffffffffffffffffffffffffffffffffffffffff\n      and\n      0xffffffffffffffffffffffffffffffffffffffff\n      and\n      dup2\n      mstore\n      0x20\n      add\n      swap1\n      dup2\n      mstore\n      0x20\n      add\n      0x00\n      keccak256\n        /* \"contracts/TaxiBase.sol\":1262:1299  taxiDrivers[msg.sender].driverAddress */\n      0x01\n      add\n      0x00\n      swap1\n      sload\n      swap1\n      0x0100\n      exp\n      swap1\n      div\n      0xffffffffffffffffffffffffffffffffffffffff\n      and\n        /* \"contracts/TaxiBase.sol\":1262:1313  taxiDrivers[msg.sender].driverAddress == address(0) */\n      0xffffffffffffffffffffffffffffffffffffffff\n      and\n      eq\n        /* \"contracts/TaxiBase.sol\":1254:1343  require(taxiDrivers[msg.sender].driverAddress == address(0), \"Driver already registered\") */\n      tag_32\n      jumpi\n      mload(0x40)\n      0x08c379a000000000000000000000000000000000000000000000000000000000\n      dup2\n      mstore\n      0x04\n      add\n      tag_33\n      swap1\n      jump(tag_34)\n    tag_33:\n      mload(0x40)\n      dup1\n      swap2\n      sub\n      swap1\n      revert\n    tag_32:\n        /* \"contracts/TaxiBase.sol\":1364:1393  isValidTaxiDriver(msg.sender) */\n      tag_35\n        /* \"contracts/TaxiBase.sol\":1382:1392  msg.sender */\n      caller\n        /* \"contracts/TaxiBase.sol\":1364:1381  isValidTaxiDriver */\n      tag_36\n        /* \"contracts/TaxiBase.sol\":1364:1393  isValidTaxiDriver(msg.sender) */\n      jump\t// in\n    tag_35:\n        /* \"contracts/TaxiBase.sol\":1356:1421  require(isValidTaxiDriver(msg.sender), \"Not a valid taxi driver\") */\n      tag_37\n      jumpi\n      mload(0x40)\n      0x08c379a000000000000000000000000000000000000000000000000000000000\n      dup2\n      mstore\n      0x04\n      add\n      tag_38\n      swap1\n      jump(tag_39)\n    tag_38:\n      mload(0x40)\n      dup1\n      swap2\n      sub\n      swap1\n      revert\n    tag_37:\n        /* \"contracts/TaxiBase.sol\":1460:1549  TaxiDriver({\r... */\n      mload(0x40)\n      dup1\n      0x40\n      add\n      0x40\n      mstore\n      dup1\n        /* \"contracts/TaxiBase.sol\":1492:1497  _name */\n      dup3\n        /* \"contracts/TaxiBase.sol\":1460:1549  TaxiDriver({\r... */\n      dup2\n      mstore\n      0x20\n      add\n        /* \"contracts/TaxiBase.sol\":1527:1537  msg.sender */\n      caller\n        /* \"contracts/TaxiBase.sol\":1460:1549  TaxiDriver({\r... */\n      0xffffffffffffffffffffffffffffffffffffffff\n      and\n      dup2\n      mstore\n      pop\n        /* \"contracts/TaxiBase.sol\":1434:1445  taxiDrivers */\n      0x01\n        /* \"contracts/TaxiBase.sol\":1434:1457  taxiDrivers[msg.sender] */\n      0x00\n        /* \"contracts/TaxiBase.sol\":1446:1456  msg.sender */\n      caller\n        /* \"contracts/TaxiBase.sol\":1434:1457  taxiDrivers[msg.sender] */\n      0xffffffffffffffffffffffffffffffffffffffff\n      and\n      0xffffffffffffffffffffffffffffffffffffffff\n      and\n      dup2\n      mstore\n      0x20\n      add\n      swap1\n      dup2\n      mstore\n      0x20\n      add\n      0x00\n      keccak256\n        /* \"contracts/TaxiBase.sol\":1434:1549  taxiDrivers[msg.sender] = TaxiDriver({\r... */\n      0x00\n      dup3\n      add\n      mload\n      dup2\n      0x00\n      add\n      swap1\n      dup1\n      mload\n      swap1\n      0x20\n      add\n      swap1\n      tag_40\n      swap3\n      swap2\n      swap1\n      tag_41\n      jump\t// in\n    tag_40:\n      pop\n      0x20\n      dup3\n      add\n      mload\n      dup2\n      0x01\n      add\n      exp(0x0100, 0x00)\n      dup2\n      sload\n      dup2\n      0xffffffffffffffffffffffffffffffffffffffff\n      mul\n      not\n      and\n      swap1\n      dup4\n      0xffffffffffffffffffffffffffffffffffffffff\n      and\n      mul\n      or\n      swap1\n      sstore\n      pop\n      swap1\n      pop\n      pop\n        /* \"contracts/TaxiBase.sol\":1588:1598  msg.sender */\n      caller\n        /* \"contracts/TaxiBase.sol\":1567:1606  TaxiDriverRegistered(msg.sender, _name) */\n      0xffffffffffffffffffffffffffffffffffffffff\n      and\n      0x95678808309e69e2ba08a9f9020f870206d48a2950d5b298533653dd50404cad\n        /* \"contracts/TaxiBase.sol\":1600:1605  _name */\n      dup3\n        /* \"contracts/TaxiBase.sol\":1567:1606  TaxiDriverRegistered(msg.sender, _name) */\n      mload(0x40)\n      tag_42\n      swap2\n      swap1\n      jump(tag_43)\n    tag_42:\n      mload(0x40)\n      dup1\n      swap2\n      sub\n      swap1\n      log2\n        /* \"contracts/TaxiBase.sol\":1037:1614  function registerTaxiDriver(string memory _name) external {\r... */\n      pop\n      jump\t// out\n        /* \"contracts/TaxiBase.sol\":330:379  mapping(address => TaxiDriver) public taxiDrivers */\n    tag_14:\n      mstore(0x20, 0x01)\n      dup1\n      0x00\n      mstore\n      keccak256(0x00, 0x40)\n      0x00\n      swap2\n      pop\n      swap1\n      pop\n      dup1\n      0x00\n      add\n      dup1\n      sload\n      0x01\n      dup2\n      0x01\n      and\n      iszero\n      0x0100\n      mul\n      sub\n      and\n      0x02\n      swap1\n      div\n      dup1\n      0x1f\n      add\n      0x20\n      dup1\n      swap2\n      div\n      mul\n      0x20\n      add\n      mload(0x40)\n      swap1\n      dup2\n      add\n      0x40\n      mstore\n      dup1\n      swap3\n      swap2\n      swap1\n      dup2\n      dup2\n      mstore\n      0x20\n      add\n      dup3\n      dup1\n      sload\n      0x01\n      dup2\n      0x01\n      and\n      iszero\n      0x0100\n      mul\n      sub\n      and\n      0x02\n      swap1\n      div\n      dup1\n      iszero\n      tag_44\n      jumpi\n      dup1\n      0x1f\n      lt\n      tag_45\n      jumpi\n      0x0100\n      dup1\n      dup4\n      sload\n      div\n      mul\n      dup4\n      mstore\n      swap2\n      0x20\n      add\n      swap2\n      jump(tag_44)\n    tag_45:\n      dup3\n      add\n      swap2\n      swap1\n      0x00\n      mstore\n      keccak256(0x00, 0x20)\n      swap1\n    tag_46:\n      dup2\n      sload\n      dup2\n      mstore\n      swap1\n      0x01\n      add\n      swap1\n      0x20\n      add\n      dup1\n      dup4\n      gt\n      tag_46\n      jumpi\n      dup3\n      swap1\n      sub\n      0x1f\n      and\n      dup3\n      add\n      swap2\n    tag_44:\n      pop\n      pop\n      pop\n      pop\n      pop\n      swap1\n      dup1\n      0x01\n      add\n      0x00\n      swap1\n      sload\n      swap1\n      0x0100\n      exp\n      swap1\n      div\n      0xffffffffffffffffffffffffffffffffffffffff\n      and\n      swap1\n      pop\n      dup3\n      jump\t// out\n        /* \"contracts/TaxiBase.sol\":1915:2927  function getRegisteredDrivers() external view returns (address[] memory driverAddresses, string[] memory driverNames) {\r... */\n    tag_18:\n        /* \"contracts/TaxiBase.sol\":1970:2002  address[] memory driverAddresses */\n      0x60\n        /* \"contracts/TaxiBase.sol\":2004:2031  string[] memory driverNames */\n      dup1\n        /* \"contracts/TaxiBase.sol\":2044:2063  uint256 driverCount */\n      0x00\n        /* \"contracts/TaxiBase.sol\":2066:2067  0 */\n      dup1\n        /* \"contracts/TaxiBase.sol\":2044:2067  uint256 driverCount = 0 */\n      swap1\n      pop\n        /* \"contracts/TaxiBase.sol\":2136:2145  uint256 i */\n      0x00\n        /* \"contracts/TaxiBase.sol\":2148:2149  1 */\n      0x01\n        /* \"contracts/TaxiBase.sol\":2136:2149  uint256 i = 1 */\n      swap1\n      pop\n        /* \"contracts/TaxiBase.sol\":2131:2295  for (uint256 i = 1; i <= 9; i++) {\r... */\n    tag_48:\n        /* \"contracts/TaxiBase.sol\":2156:2157  9 */\n      0x09\n        /* \"contracts/TaxiBase.sol\":2151:2152  i */\n      dup2\n        /* \"contracts/TaxiBase.sol\":2151:2157  i <= 9 */\n      gt\n        /* \"contracts/TaxiBase.sol\":2131:2295  for (uint256 i = 1; i <= 9; i++) {\r... */\n      tag_49\n      jumpi\n        /* \"contracts/TaxiBase.sol\":2232:2233  0 */\n      0x00\n        /* \"contracts/TaxiBase.sol\":2183:2234  taxiDrivers[address(i)].driverAddress != address(0) */\n      0xffffffffffffffffffffffffffffffffffffffff\n      and\n        /* \"contracts/TaxiBase.sol\":2183:2194  taxiDrivers */\n      0x01\n        /* \"contracts/TaxiBase.sol\":2183:2206  taxiDrivers[address(i)] */\n      0x00\n        /* \"contracts/TaxiBase.sol\":2203:2204  i */\n      dup4\n        /* \"contracts/TaxiBase.sol\":2183:2206  taxiDrivers[address(i)] */\n      0xffffffffffffffffffffffffffffffffffffffff\n      and\n      0xffffffffffffffffffffffffffffffffffffffff\n      and\n      dup2\n      mstore\n      0x20\n      add\n      swap1\n      dup2\n      mstore\n      0x20\n      add\n      0x00\n      keccak256\n        /* \"contracts/TaxiBase.sol\":2183:2220  taxiDrivers[address(i)].driverAddress */\n      0x01\n      add\n      0x00\n      swap1\n      sload\n      swap1\n      0x0100\n      exp\n      swap1\n      div\n      0xffffffffffffffffffffffffffffffffffffffff\n      and\n        /* \"contracts/TaxiBase.sol\":2183:2234  taxiDrivers[address(i)].driverAddress != address(0) */\n      0xffffffffffffffffffffffffffffffffffffffff\n      and\n      eq\n        /* \"contracts/TaxiBase.sol\":2179:2284  if (taxiDrivers[address(i)].driverAddress != address(0)) {\r... */\n      tag_51\n      jumpi\n        /* \"contracts/TaxiBase.sol\":2255:2268  driverCount++ */\n      dup2\n      dup1\n      0x01\n      add\n      swap3\n      pop\n      pop\n        /* \"contracts/TaxiBase.sol\":2179:2284  if (taxiDrivers[address(i)].driverAddress != address(0)) {\r... */\n    tag_51:\n        /* \"contracts/TaxiBase.sol\":2159:2162  i++ */\n      dup1\n      dup1\n      0x01\n      add\n      swap2\n      pop\n      pop\n        /* \"contracts/TaxiBase.sol\":2131:2295  for (uint256 i = 1; i <= 9; i++) {\r... */\n      jump(tag_48)\n    tag_49:\n      pop\n        /* \"contracts/TaxiBase.sol\":2400:2411  driverCount */\n      dup1\n        /* \"contracts/TaxiBase.sol\":2386:2412  new address[](driverCount) */\n      0xffffffffffffffff\n      dup2\n      gt\n      dup1\n      iszero\n      tag_52\n      jumpi\n      0x00\n      dup1\n      revert\n    tag_52:\n      pop\n      mload(0x40)\n      swap1\n      dup1\n      dup3\n      mstore\n      dup1\n      0x20\n      mul\n      0x20\n      add\n      dup3\n      add\n      0x40\n      mstore\n      dup1\n      iszero\n      tag_53\n      jumpi\n      dup2\n      0x20\n      add\n      0x20\n      dup3\n      mul\n      dup1\n      calldatasize\n      dup4\n      calldatacopy\n      dup1\n      dup3\n      add\n      swap2\n      pop\n      pop\n      swap1\n      pop\n    tag_53:\n      pop\n        /* \"contracts/TaxiBase.sol\":2368:2412  driverAddresses = new address[](driverCount) */\n      swap3\n      pop\n        /* \"contracts/TaxiBase.sol\":2450:2461  driverCount */\n      dup1\n        /* \"contracts/TaxiBase.sol\":2437:2462  new string[](driverCount) */\n      0xffffffffffffffff\n      dup2\n      gt\n      dup1\n      iszero\n      tag_54\n      jumpi\n      0x00\n      dup1\n      revert\n    tag_54:\n      pop\n      mload(0x40)\n      swap1\n      dup1\n      dup3\n      mstore\n      dup1\n      0x20\n      mul\n      0x20\n      add\n      dup3\n      add\n      0x40\n      mstore\n      dup1\n      iszero\n      tag_55\n      jumpi\n      dup2\n      0x20\n      add\n    tag_56:\n      0x60\n      dup2\n      mstore\n      0x20\n      add\n      swap1\n      0x01\n      swap1\n      sub\n      swap1\n      dup2\n      tag_56\n      jumpi\n      swap1\n      pop\n    tag_55:\n      pop\n        /* \"contracts/TaxiBase.sol\":2423:2462  driverNames = new string[](driverCount) */\n      swap2\n      pop\n        /* \"contracts/TaxiBase.sol\":2535:2548  uint256 index */\n      0x00\n        /* \"contracts/TaxiBase.sol\":2551:2552  0 */\n      dup1\n        /* \"contracts/TaxiBase.sol\":2535:2552  uint256 index = 0 */\n      swap1\n      pop\n        /* \"contracts/TaxiBase.sol\":2568:2577  uint256 i */\n      0x00\n        /* \"contracts/TaxiBase.sol\":2580:2581  1 */\n      0x01\n        /* \"contracts/TaxiBase.sol\":2568:2581  uint256 i = 1 */\n      swap1\n      pop\n        /* \"contracts/TaxiBase.sol\":2563:2870  for (uint256 i = 1; i <= 9; i++) {\r... */\n    tag_57:\n        /* \"contracts/TaxiBase.sol\":2588:2589  9 */\n      0x09\n        /* \"contracts/TaxiBase.sol\":2583:2584  i */\n      dup2\n        /* \"contracts/TaxiBase.sol\":2583:2589  i <= 9 */\n      gt\n        /* \"contracts/TaxiBase.sol\":2563:2870  for (uint256 i = 1; i <= 9; i++) {\r... */\n      tag_58\n      jumpi\n        /* \"contracts/TaxiBase.sol\":2664:2665  0 */\n      0x00\n        /* \"contracts/TaxiBase.sol\":2615:2666  taxiDrivers[address(i)].driverAddress != address(0) */\n      0xffffffffffffffffffffffffffffffffffffffff\n      and\n        /* \"contracts/TaxiBase.sol\":2615:2626  taxiDrivers */\n      0x01\n        /* \"contracts/TaxiBase.sol\":2615:2638  taxiDrivers[address(i)] */\n      0x00\n        /* \"contracts/TaxiBase.sol\":2635:2636  i */\n      dup4\n        /* \"contracts/TaxiBase.sol\":2615:2638  taxiDrivers[address(i)] */\n      0xffffffffffffffffffffffffffffffffffffffff\n      and\n      0xffffffffffffffffffffffffffffffffffffffff\n      and\n      dup2\n      mstore\n      0x20\n      add\n      swap1\n      dup2\n      mstore\n      0x20\n      add\n      0x00\n      keccak256\n        /* \"contracts/TaxiBase.sol\":2615:2652  taxiDrivers[address(i)].driverAddress */\n      0x01\n      add\n      0x00\n      swap1\n      sload\n      swap1\n      0x0100\n      exp\n      swap1\n      div\n      0xffffffffffffffffffffffffffffffffffffffff\n      and\n        /* \"contracts/TaxiBase.sol\":2615:2666  taxiDrivers[address(i)].driverAddress != address(0) */\n      0xffffffffffffffffffffffffffffffffffffffff\n      and\n      eq\n        /* \"contracts/TaxiBase.sol\":2611:2859  if (taxiDrivers[address(i)].driverAddress != address(0)) {\r... */\n      tag_60\n      jumpi\n        /* \"contracts/TaxiBase.sol\":2712:2723  taxiDrivers */\n      0x01\n        /* \"contracts/TaxiBase.sol\":2712:2735  taxiDrivers[address(i)] */\n      0x00\n        /* \"contracts/TaxiBase.sol\":2732:2733  i */\n      dup3\n        /* \"contracts/TaxiBase.sol\":2712:2735  taxiDrivers[address(i)] */\n      0xffffffffffffffffffffffffffffffffffffffff\n      and\n      0xffffffffffffffffffffffffffffffffffffffff\n      and\n      dup2\n      mstore\n      0x20\n      add\n      swap1\n      dup2\n      mstore\n      0x20\n      add\n      0x00\n      keccak256\n        /* \"contracts/TaxiBase.sol\":2712:2749  taxiDrivers[address(i)].driverAddress */\n      0x01\n      add\n      0x00\n      swap1\n      sload\n      swap1\n      0x0100\n      exp\n      swap1\n      div\n      0xffffffffffffffffffffffffffffffffffffffff\n      and\n        /* \"contracts/TaxiBase.sol\":2687:2702  driverAddresses */\n      dup6\n        /* \"contracts/TaxiBase.sol\":2703:2708  index */\n      dup4\n        /* \"contracts/TaxiBase.sol\":2687:2709  driverAddresses[index] */\n      dup2\n      mload\n      dup2\n      lt\n      tag_61\n      jumpi\n      invalid\n    tag_61:\n      0x20\n      mul\n      0x20\n      add\n      add\n        /* \"contracts/TaxiBase.sol\":2687:2749  driverAddresses[index] = taxiDrivers[address(i)].driverAddress */\n      swap1\n      0xffffffffffffffffffffffffffffffffffffffff\n      and\n      swap1\n      dup2\n      0xffffffffffffffffffffffffffffffffffffffff\n      and\n      dup2\n      mstore\n      pop\n      pop\n        /* \"contracts/TaxiBase.sol\":2789:2800  taxiDrivers */\n      0x01\n        /* \"contracts/TaxiBase.sol\":2789:2812  taxiDrivers[address(i)] */\n      0x00\n        /* \"contracts/TaxiBase.sol\":2809:2810  i */\n      dup3\n        /* \"contracts/TaxiBase.sol\":2789:2812  taxiDrivers[address(i)] */\n      0xffffffffffffffffffffffffffffffffffffffff\n      and\n      0xffffffffffffffffffffffffffffffffffffffff\n      and\n      dup2\n      mstore\n      0x20\n      add\n      swap1\n      dup2\n      mstore\n      0x20\n      add\n      0x00\n      keccak256\n        /* \"contracts/TaxiBase.sol\":2789:2817  taxiDrivers[address(i)].name */\n      0x00\n      add\n        /* \"contracts/TaxiBase.sol\":2768:2817  driverNames[index] = taxiDrivers[address(i)].name */\n      dup1\n      sload\n      0x01\n      dup2\n      0x01\n      and\n      iszero\n      0x0100\n      mul\n      sub\n      and\n      0x02\n      swap1\n      div\n      dup1\n      0x1f\n      add\n      0x20\n      dup1\n      swap2\n      div\n      mul\n      0x20\n      add\n      mload(0x40)\n      swap1\n      dup2\n      add\n      0x40\n      mstore\n      dup1\n      swap3\n      swap2\n      swap1\n      dup2\n      dup2\n      mstore\n      0x20\n      add\n      dup3\n      dup1\n      sload\n      0x01\n      dup2\n      0x01\n      and\n      iszero\n      0x0100\n      mul\n      sub\n      and\n      0x02\n      swap1\n      div\n      dup1\n      iszero\n      tag_62\n      jumpi\n      dup1\n      0x1f\n      lt\n      tag_63\n      jumpi\n      0x0100\n      dup1\n      dup4\n      sload\n      div\n      mul\n      dup4\n      mstore\n      swap2\n      0x20\n      add\n      swap2\n      jump(tag_62)\n    tag_63:\n      dup3\n      add\n      swap2\n      swap1\n      0x00\n      mstore\n      keccak256(0x00, 0x20)\n      swap1\n    tag_64:\n      dup2\n      sload\n      dup2\n      mstore\n      swap1\n      0x01\n      add\n      swap1\n      0x20\n      add\n      dup1\n      dup4\n      gt\n      tag_64\n      jumpi\n      dup3\n      swap1\n      sub\n      0x1f\n      and\n      dup3\n      add\n      swap2\n    tag_62:\n      pop\n      pop\n      pop\n      pop\n      pop\n        /* \"contracts/TaxiBase.sol\":2768:2779  driverNames */\n      dup5\n        /* \"contracts/TaxiBase.sol\":2780:2785  index */\n      dup4\n        /* \"contracts/TaxiBase.sol\":2768:2786  driverNames[index] */\n      dup2\n      mload\n      dup2\n      lt\n      tag_65\n      jumpi\n      invalid\n    tag_65:\n      0x20\n      mul\n      0x20\n      add\n      add\n        /* \"contracts/TaxiBase.sol\":2768:2817  driverNames[index] = taxiDrivers[address(i)].name */\n      dup2\n      swap1\n      mstore\n      pop\n        /* \"contracts/TaxiBase.sol\":2836:2843  index++ */\n      dup2\n      dup1\n      0x01\n      add\n      swap3\n      pop\n      pop\n        /* \"contracts/TaxiBase.sol\":2611:2859  if (taxiDrivers[address(i)].driverAddress != address(0)) {\r... */\n    tag_60:\n        /* \"contracts/TaxiBase.sol\":2591:2594  i++ */\n      dup1\n      dup1\n      0x01\n      add\n      swap2\n      pop\n      pop\n        /* \"contracts/TaxiBase.sol\":2563:2870  for (uint256 i = 1; i <= 9; i++) {\r... */\n      jump(tag_57)\n    tag_58:\n      pop\n        /* \"contracts/TaxiBase.sol\":2890:2905  driverAddresses */\n      dup4\n        /* \"contracts/TaxiBase.sol\":2907:2918  driverNames */\n      dup4\n        /* \"contracts/TaxiBase.sol\":2882:2919  return (driverAddresses, driverNames) */\n      swap4\n      pop\n      swap4\n      pop\n      pop\n      pop\n        /* \"contracts/TaxiBase.sol\":1915:2927  function getRegisteredDrivers() external view returns (address[] memory driverAddresses, string[] memory driverNames) {\r... */\n      swap1\n      swap2\n      jump\t// out\n        /* \"contracts/TaxiBase.sol\":130:150  address public owner */\n    tag_22:\n      0x00\n      dup1\n      swap1\n      sload\n      swap1\n      0x0100\n      exp\n      swap1\n      div\n      0xffffffffffffffffffffffffffffffffffffffff\n      and\n      dup2\n      jump\t// out\n        /* \"contracts/TaxiBase.sol\":1703:1847  function isValidTaxiDriver(address _address) internal pure returns (bool) {\r... */\n    tag_36:\n        /* \"contracts/TaxiBase.sol\":1771:1775  bool */\n      0x00\n        /* \"contracts/TaxiBase.sol\":1814:1815  1 */\n      0x01\n        /* \"contracts/TaxiBase.sol\":1801:1809  _address */\n      dup3\n        /* \"contracts/TaxiBase.sol\":1795:1815  uint8(_address) >= 1 */\n      0xff\n      and\n      lt\n      iszero\n        /* \"contracts/TaxiBase.sol\":1795:1839  uint8(_address) >= 1 && uint8(_address) <= 9 */\n      dup1\n      iszero\n      tag_67\n      jumpi\n      pop\n        /* \"contracts/TaxiBase.sol\":1838:1839  9 */\n      0x09\n        /* \"contracts/TaxiBase.sol\":1825:1833  _address */\n      dup3\n        /* \"contracts/TaxiBase.sol\":1819:1839  uint8(_address) <= 9 */\n      0xff\n      and\n      gt\n      iszero\n        /* \"contracts/TaxiBase.sol\":1795:1839  uint8(_address) >= 1 && uint8(_address) <= 9 */\n    tag_67:\n        /* \"contracts/TaxiBase.sol\":1788:1839  return uint8(_address) >= 1 && uint8(_address) <= 9 */\n      swap1\n      pop\n        /* \"contracts/TaxiBase.sol\":1703:1847  function isValidTaxiDriver(address _address) internal pure returns (bool) {\r... */\n      swap2\n      swap1\n      pop\n      jump\t// out\n    tag_41:\n      dup3\n      dup1\n      sload\n      0x01\n      dup2\n      0x01\n      and\n      iszero\n      0x0100\n      mul\n      sub\n      and\n      0x02\n      swap1\n      div\n      swap1\n      0x00\n      mstore\n      keccak256(0x00, 0x20)\n      swap1\n      0x1f\n      add\n      0x20\n      swap1\n      div\n      dup2\n      add\n      swap3\n      dup3\n      0x1f\n      lt\n      tag_69\n      jumpi\n      dup1\n      mload\n      not(0xff)\n      and\n      dup4\n      dup1\n      add\n      or\n      dup6\n      sstore\n      jump(tag_68)\n    tag_69:\n      dup3\n      dup1\n      add\n      0x01\n      add\n      dup6\n      sstore\n      dup3\n      iszero\n      tag_68\n      jumpi\n      swap2\n      dup3\n      add\n    tag_70:\n      dup3\n      dup2\n      gt\n      iszero\n      tag_71\n      jumpi\n      dup3\n      mload\n      dup3\n      sstore\n      swap2\n      0x20\n      add\n      swap2\n      swap1\n      0x01\n      add\n      swap1\n      jump(tag_70)\n    tag_71:\n    tag_68:\n      pop\n      swap1\n      pop\n      tag_72\n      swap2\n      swap1\n      tag_73\n      jump\t// in\n    tag_72:\n      pop\n      swap1\n      jump\t// out\n    tag_73:\n      tag_74\n      swap2\n      swap1\n    tag_75:\n      dup1\n      dup3\n      gt\n      iszero\n      tag_76\n      jumpi\n      0x00\n      dup2\n      0x00\n      swap1\n      sstore\n      pop\n      0x01\n      add\n      jump(tag_75)\n    tag_76:\n      pop\n      swap1\n      jump\n    tag_74:\n      swap1\n      jump\t// out\n        /* \"--CODEGEN--\":5:135   */\n    tag_78:\n      0x00\n        /* \"--CODEGEN--\":85:91   */\n      dup2\n        /* \"--CODEGEN--\":72:92   */\n      calldataload\n        /* \"--CODEGEN--\":63:92   */\n      swap1\n      pop\n        /* \"--CODEGEN--\":97:130   */\n      tag_80\n        /* \"--CODEGEN--\":124:129   */\n      dup2\n        /* \"--CODEGEN--\":97:130   */\n      jump(tag_81)\n    tag_80:\n        /* \"--CODEGEN--\":57:135   */\n      swap3\n      swap2\n      pop\n      pop\n      jump\n        /* \"--CODEGEN--\":143:585   */\n    tag_82:\n      0x00\n        /* \"--CODEGEN--\":245:248   */\n      dup3\n        /* \"--CODEGEN--\":238:242   */\n      0x1f\n        /* \"--CODEGEN--\":230:236   */\n      dup4\n        /* \"--CODEGEN--\":226:243   */\n      add\n        /* \"--CODEGEN--\":222:249   */\n      slt\n        /* \"--CODEGEN--\":212:214   */\n      tag_84\n      jumpi\n        /* \"--CODEGEN--\":263:264   */\n      0x00\n        /* \"--CODEGEN--\":260:261   */\n      dup1\n        /* \"--CODEGEN--\":253:265   */\n      revert\n        /* \"--CODEGEN--\":212:214   */\n    tag_84:\n        /* \"--CODEGEN--\":300:306   */\n      dup2\n        /* \"--CODEGEN--\":287:307   */\n      calldataload\n        /* \"--CODEGEN--\":322:387   */\n      tag_85\n        /* \"--CODEGEN--\":337:386   */\n      tag_86\n        /* \"--CODEGEN--\":379:385   */\n      dup3\n        /* \"--CODEGEN--\":337:386   */\n      jump(tag_87)\n    tag_86:\n        /* \"--CODEGEN--\":322:387   */\n      jump(tag_88)\n    tag_85:\n        /* \"--CODEGEN--\":313:387   */\n      swap2\n      pop\n        /* \"--CODEGEN--\":407:413   */\n      dup1\n        /* \"--CODEGEN--\":400:405   */\n      dup3\n        /* \"--CODEGEN--\":393:414   */\n      mstore\n        /* \"--CODEGEN--\":443:447   */\n      0x20\n        /* \"--CODEGEN--\":435:441   */\n      dup4\n        /* \"--CODEGEN--\":431:448   */\n      add\n        /* \"--CODEGEN--\":476:480   */\n      0x20\n        /* \"--CODEGEN--\":469:474   */\n      dup4\n        /* \"--CODEGEN--\":465:481   */\n      add\n        /* \"--CODEGEN--\":511:514   */\n      dup6\n        /* \"--CODEGEN--\":502:508   */\n      dup4\n        /* \"--CODEGEN--\":497:500   */\n      dup4\n        /* \"--CODEGEN--\":493:509   */\n      add\n        /* \"--CODEGEN--\":490:515   */\n      gt\n        /* \"--CODEGEN--\":487:489   */\n      iszero\n      tag_89\n      jumpi\n        /* \"--CODEGEN--\":528:529   */\n      0x00\n        /* \"--CODEGEN--\":525:526   */\n      dup1\n        /* \"--CODEGEN--\":518:530   */\n      revert\n        /* \"--CODEGEN--\":487:489   */\n    tag_89:\n        /* \"--CODEGEN--\":538:579   */\n      tag_90\n        /* \"--CODEGEN--\":572:578   */\n      dup4\n        /* \"--CODEGEN--\":567:570   */\n      dup3\n        /* \"--CODEGEN--\":562:565   */\n      dup5\n        /* \"--CODEGEN--\":538:579   */\n      jump(tag_91)\n    tag_90:\n        /* \"--CODEGEN--\":205:585   */\n      pop\n      pop\n      pop\n      swap3\n      swap2\n      pop\n      pop\n      jump\n        /* \"--CODEGEN--\":593:834   */\n    tag_13:\n      0x00\n        /* \"--CODEGEN--\":697:699   */\n      0x20\n        /* \"--CODEGEN--\":685:694   */\n      dup3\n        /* \"--CODEGEN--\":676:683   */\n      dup5\n        /* \"--CODEGEN--\":672:695   */\n      sub\n        /* \"--CODEGEN--\":668:700   */\n      slt\n        /* \"--CODEGEN--\":665:667   */\n      iszero\n      tag_93\n      jumpi\n        /* \"--CODEGEN--\":713:714   */\n      0x00\n        /* \"--CODEGEN--\":710:711   */\n      dup1\n        /* \"--CODEGEN--\":703:715   */\n      revert\n        /* \"--CODEGEN--\":665:667   */\n    tag_93:\n        /* \"--CODEGEN--\":748:749   */\n      0x00\n        /* \"--CODEGEN--\":765:818   */\n      tag_94\n        /* \"--CODEGEN--\":810:817   */\n      dup5\n        /* \"--CODEGEN--\":801:807   */\n      dup3\n        /* \"--CODEGEN--\":790:799   */\n      dup6\n        /* \"--CODEGEN--\":786:808   */\n      add\n        /* \"--CODEGEN--\":765:818   */\n      jump(tag_78)\n    tag_94:\n        /* \"--CODEGEN--\":755:818   */\n      swap2\n      pop\n        /* \"--CODEGEN--\":727:824   */\n      pop\n        /* \"--CODEGEN--\":659:834   */\n      swap3\n      swap2\n      pop\n      pop\n      jump\n        /* \"--CODEGEN--\":841:1188   */\n    tag_9:\n      0x00\n        /* \"--CODEGEN--\":955:957   */\n      0x20\n        /* \"--CODEGEN--\":943:952   */\n      dup3\n        /* \"--CODEGEN--\":934:941   */\n      dup5\n        /* \"--CODEGEN--\":930:953   */\n      sub\n        /* \"--CODEGEN--\":926:958   */\n      slt\n        /* \"--CODEGEN--\":923:925   */\n      iszero\n      tag_96\n      jumpi\n        /* \"--CODEGEN--\":971:972   */\n      0x00\n        /* \"--CODEGEN--\":968:969   */\n      dup1\n        /* \"--CODEGEN--\":961:973   */\n      revert\n        /* \"--CODEGEN--\":923:925   */\n    tag_96:\n        /* \"--CODEGEN--\":1034:1035   */\n      0x00\n        /* \"--CODEGEN--\":1023:1032   */\n      dup3\n        /* \"--CODEGEN--\":1019:1036   */\n      add\n        /* \"--CODEGEN--\":1006:1037   */\n      calldataload\n        /* \"--CODEGEN--\":1057:1075   */\n      0xffffffffffffffff\n        /* \"--CODEGEN--\":1049:1055   */\n      dup2\n        /* \"--CODEGEN--\":1046:1076   */\n      gt\n        /* \"--CODEGEN--\":1043:1045   */\n      iszero\n      tag_97\n      jumpi\n        /* \"--CODEGEN--\":1089:1090   */\n      0x00\n        /* \"--CODEGEN--\":1086:1087   */\n      dup1\n        /* \"--CODEGEN--\":1079:1091   */\n      revert\n        /* \"--CODEGEN--\":1043:1045   */\n    tag_97:\n        /* \"--CODEGEN--\":1109:1172   */\n      tag_98\n        /* \"--CODEGEN--\":1164:1171   */\n      dup5\n        /* \"--CODEGEN--\":1155:1161   */\n      dup3\n        /* \"--CODEGEN--\":1144:1153   */\n      dup6\n        /* \"--CODEGEN--\":1140:1162   */\n      add\n        /* \"--CODEGEN--\":1109:1172   */\n      jump(tag_82)\n    tag_98:\n        /* \"--CODEGEN--\":1099:1172   */\n      swap2\n      pop\n        /* \"--CODEGEN--\":985:1178   */\n      pop\n        /* \"--CODEGEN--\":917:1188   */\n      swap3\n      swap2\n      pop\n      pop\n      jump\n        /* \"--CODEGEN--\":1196:1369   */\n    tag_99:\n      0x00\n        /* \"--CODEGEN--\":1283:1329   */\n      tag_101\n        /* \"--CODEGEN--\":1325:1328   */\n      dup4\n        /* \"--CODEGEN--\":1317:1323   */\n      dup4\n        /* \"--CODEGEN--\":1283:1329   */\n      jump(tag_102)\n    tag_101:\n        /* \"--CODEGEN--\":1358:1362   */\n      0x20\n        /* \"--CODEGEN--\":1353:1356   */\n      dup4\n        /* \"--CODEGEN--\":1349:1363   */\n      add\n        /* \"--CODEGEN--\":1335:1363   */\n      swap1\n      pop\n        /* \"--CODEGEN--\":1276:1369   */\n      swap3\n      swap2\n      pop\n      pop\n      jump\n        /* \"--CODEGEN--\":1378:1571   */\n    tag_103:\n      0x00\n        /* \"--CODEGEN--\":1499:1565   */\n      tag_105\n        /* \"--CODEGEN--\":1561:1564   */\n      dup4\n        /* \"--CODEGEN--\":1553:1559   */\n      dup4\n        /* \"--CODEGEN--\":1499:1565   */\n      jump(tag_106)\n    tag_105:\n        /* \"--CODEGEN--\":1485:1565   */\n      swap1\n      pop\n        /* \"--CODEGEN--\":1478:1571   */\n      swap3\n      swap2\n      pop\n      pop\n      jump\n        /* \"--CODEGEN--\":1579:1682   */\n    tag_102:\n        /* \"--CODEGEN--\":1652:1676   */\n      tag_108\n        /* \"--CODEGEN--\":1670:1675   */\n      dup2\n        /* \"--CODEGEN--\":1652:1676   */\n      jump(tag_109)\n    tag_108:\n        /* \"--CODEGEN--\":1647:1650   */\n      dup3\n        /* \"--CODEGEN--\":1640:1677   */\n      mstore\n        /* \"--CODEGEN--\":1634:1682   */\n      pop\n      pop\n      jump\n        /* \"--CODEGEN--\":1689:1802   */\n    tag_110:\n        /* \"--CODEGEN--\":1772:1796   */\n      tag_112\n        /* \"--CODEGEN--\":1790:1795   */\n      dup2\n        /* \"--CODEGEN--\":1772:1796   */\n      jump(tag_109)\n    tag_112:\n        /* \"--CODEGEN--\":1767:1770   */\n      dup3\n        /* \"--CODEGEN--\":1760:1797   */\n      mstore\n        /* \"--CODEGEN--\":1754:1802   */\n      pop\n      pop\n      jump\n        /* \"--CODEGEN--\":1840:2530   */\n    tag_113:\n      0x00\n        /* \"--CODEGEN--\":1985:2039   */\n      tag_115\n        /* \"--CODEGEN--\":2033:2038   */\n      dup3\n        /* \"--CODEGEN--\":1985:2039   */\n      jump(tag_116)\n    tag_115:\n        /* \"--CODEGEN--\":2052:2138   */\n      tag_117\n        /* \"--CODEGEN--\":2131:2137   */\n      dup2\n        /* \"--CODEGEN--\":2126:2129   */\n      dup6\n        /* \"--CODEGEN--\":2052:2138   */\n      jump(tag_118)\n    tag_117:\n        /* \"--CODEGEN--\":2045:2138   */\n      swap4\n      pop\n        /* \"--CODEGEN--\":2159:2215   */\n      tag_119\n        /* \"--CODEGEN--\":2209:2214   */\n      dup4\n        /* \"--CODEGEN--\":2159:2215   */\n      jump(tag_120)\n    tag_119:\n        /* \"--CODEGEN--\":2235:2242   */\n      dup1\n        /* \"--CODEGEN--\":2263:2264   */\n      0x00\n        /* \"--CODEGEN--\":2248:2508   */\n    tag_121:\n        /* \"--CODEGEN--\":2273:2279   */\n      dup4\n        /* \"--CODEGEN--\":2270:2271   */\n      dup2\n        /* \"--CODEGEN--\":2267:2280   */\n      lt\n        /* \"--CODEGEN--\":2248:2508   */\n      iszero\n      tag_123\n      jumpi\n        /* \"--CODEGEN--\":2340:2346   */\n      dup2\n        /* \"--CODEGEN--\":2334:2347   */\n      mload\n        /* \"--CODEGEN--\":2361:2424   */\n      tag_124\n        /* \"--CODEGEN--\":2420:2423   */\n      dup9\n        /* \"--CODEGEN--\":2405:2418   */\n      dup3\n        /* \"--CODEGEN--\":2361:2424   */\n      jump(tag_99)\n    tag_124:\n        /* \"--CODEGEN--\":2354:2424   */\n      swap8\n      pop\n        /* \"--CODEGEN--\":2441:2501   */\n      tag_125\n        /* \"--CODEGEN--\":2494:2500   */\n      dup4\n        /* \"--CODEGEN--\":2441:2501   */\n      jump(tag_126)\n    tag_125:\n        /* \"--CODEGEN--\":2431:2501   */\n      swap3\n      pop\n        /* \"--CODEGEN--\":2305:2508   */\n      pop\n        /* \"--CODEGEN--\":2295:2296   */\n      0x01\n        /* \"--CODEGEN--\":2292:2293   */\n      dup2\n        /* \"--CODEGEN--\":2288:2297   */\n      add\n        /* \"--CODEGEN--\":2283:2297   */\n      swap1\n      pop\n        /* \"--CODEGEN--\":2248:2508   */\n      jump(tag_121)\n    tag_123:\n        /* \"--CODEGEN--\":2252:2266   */\n      pop\n        /* \"--CODEGEN--\":2521:2524   */\n      dup6\n        /* \"--CODEGEN--\":2514:2524   */\n      swap4\n      pop\n        /* \"--CODEGEN--\":1964:2530   */\n      pop\n      pop\n      pop\n      swap3\n      swap2\n      pop\n      pop\n      jump\n        /* \"--CODEGEN--\":2567:3495   */\n    tag_127:\n      0x00\n        /* \"--CODEGEN--\":2732:2796   */\n      tag_129\n        /* \"--CODEGEN--\":2790:2795   */\n      dup3\n        /* \"--CODEGEN--\":2732:2796   */\n      jump(tag_130)\n    tag_129:\n        /* \"--CODEGEN--\":2809:2905   */\n      tag_131\n        /* \"--CODEGEN--\":2898:2904   */\n      dup2\n        /* \"--CODEGEN--\":2893:2896   */\n      dup6\n        /* \"--CODEGEN--\":2809:2905   */\n      jump(tag_132)\n    tag_131:\n        /* \"--CODEGEN--\":2802:2905   */\n      swap4\n      pop\n        /* \"--CODEGEN--\":2928:2931   */\n      dup4\n        /* \"--CODEGEN--\":2970:2974   */\n      0x20\n        /* \"--CODEGEN--\":2962:2968   */\n      dup3\n        /* \"--CODEGEN--\":2958:2975   */\n      mul\n        /* \"--CODEGEN--\":2953:2956   */\n      dup6\n        /* \"--CODEGEN--\":2949:2976   */\n      add\n        /* \"--CODEGEN--\":2997:3063   */\n      tag_133\n        /* \"--CODEGEN--\":3057:3062   */\n      dup6\n        /* \"--CODEGEN--\":2997:3063   */\n      jump(tag_134)\n    tag_133:\n        /* \"--CODEGEN--\":3083:3090   */\n      dup1\n        /* \"--CODEGEN--\":3111:3112   */\n      0x00\n        /* \"--CODEGEN--\":3096:3456   */\n    tag_135:\n        /* \"--CODEGEN--\":3121:3127   */\n      dup6\n        /* \"--CODEGEN--\":3118:3119   */\n      dup2\n        /* \"--CODEGEN--\":3115:3128   */\n      lt\n        /* \"--CODEGEN--\":3096:3456   */\n      iszero\n      tag_137\n      jumpi\n        /* \"--CODEGEN--\":3183:3192   */\n      dup5\n        /* \"--CODEGEN--\":3177:3181   */\n      dup5\n        /* \"--CODEGEN--\":3173:3193   */\n      sub\n        /* \"--CODEGEN--\":3168:3171   */\n      dup10\n        /* \"--CODEGEN--\":3161:3194   */\n      mstore\n        /* \"--CODEGEN--\":3228:3234   */\n      dup2\n        /* \"--CODEGEN--\":3222:3235   */\n      mload\n        /* \"--CODEGEN--\":3250:3334   */\n      tag_138\n        /* \"--CODEGEN--\":3329:3333   */\n      dup6\n        /* \"--CODEGEN--\":3314:3327   */\n      dup3\n        /* \"--CODEGEN--\":3250:3334   */\n      jump(tag_103)\n    tag_138:\n        /* \"--CODEGEN--\":3242:3334   */\n      swap5\n      pop\n        /* \"--CODEGEN--\":3351:3421   */\n      tag_139\n        /* \"--CODEGEN--\":3414:3420   */\n      dup4\n        /* \"--CODEGEN--\":3351:3421   */\n      jump(tag_140)\n    tag_139:\n        /* \"--CODEGEN--\":3341:3421   */\n      swap3\n      pop\n        /* \"--CODEGEN--\":3444:3448   */\n      0x20\n        /* \"--CODEGEN--\":3439:3442   */\n      dup11\n        /* \"--CODEGEN--\":3435:3449   */\n      add\n        /* \"--CODEGEN--\":3428:3449   */\n      swap10\n      pop\n        /* \"--CODEGEN--\":3153:3456   */\n      pop\n        /* \"--CODEGEN--\":3143:3144   */\n      0x01\n        /* \"--CODEGEN--\":3140:3141   */\n      dup2\n        /* \"--CODEGEN--\":3136:3145   */\n      add\n        /* \"--CODEGEN--\":3131:3145   */\n      swap1\n      pop\n        /* \"--CODEGEN--\":3096:3456   */\n      jump(tag_135)\n    tag_137:\n        /* \"--CODEGEN--\":3100:3114   */\n      pop\n        /* \"--CODEGEN--\":3469:3473   */\n      dup3\n        /* \"--CODEGEN--\":3462:3473   */\n      swap8\n      pop\n        /* \"--CODEGEN--\":3486:3489   */\n      dup8\n        /* \"--CODEGEN--\":3479:3489   */\n      swap6\n      pop\n        /* \"--CODEGEN--\":2711:3495   */\n      pop\n      pop\n      pop\n      pop\n      pop\n      swap3\n      swap2\n      pop\n      pop\n      jump\n        /* \"--CODEGEN--\":3503:3830   */\n    tag_106:\n      0x00\n        /* \"--CODEGEN--\":3605:3644   */\n      tag_142\n        /* \"--CODEGEN--\":3638:3643   */\n      dup3\n        /* \"--CODEGEN--\":3605:3644   */\n      jump(tag_143)\n    tag_142:\n        /* \"--CODEGEN--\":3656:3717   */\n      tag_144\n        /* \"--CODEGEN--\":3710:3716   */\n      dup2\n        /* \"--CODEGEN--\":3705:3708   */\n      dup6\n        /* \"--CODEGEN--\":3656:3717   */\n      jump(tag_145)\n    tag_144:\n        /* \"--CODEGEN--\":3649:3717   */\n      swap4\n      pop\n        /* \"--CODEGEN--\":3722:3774   */\n      tag_146\n        /* \"--CODEGEN--\":3767:3773   */\n      dup2\n        /* \"--CODEGEN--\":3762:3765   */\n      dup6\n        /* \"--CODEGEN--\":3755:3759   */\n      0x20\n        /* \"--CODEGEN--\":3748:3753   */\n      dup7\n        /* \"--CODEGEN--\":3744:3760   */\n      add\n        /* \"--CODEGEN--\":3722:3774   */\n      jump(tag_147)\n    tag_146:\n        /* \"--CODEGEN--\":3795:3824   */\n      tag_148\n        /* \"--CODEGEN--\":3817:3823   */\n      dup2\n        /* \"--CODEGEN--\":3795:3824   */\n      jump(tag_149)\n    tag_148:\n        /* \"--CODEGEN--\":3790:3793   */\n      dup5\n        /* \"--CODEGEN--\":3786:3825   */\n      add\n        /* \"--CODEGEN--\":3779:3825   */\n      swap2\n      pop\n        /* \"--CODEGEN--\":3585:3830   */\n      pop\n      swap3\n      swap2\n      pop\n      pop\n      jump\n        /* \"--CODEGEN--\":3837:4184   */\n    tag_150:\n      0x00\n        /* \"--CODEGEN--\":3949:3988   */\n      tag_152\n        /* \"--CODEGEN--\":3982:3987   */\n      dup3\n        /* \"--CODEGEN--\":3949:3988   */\n      jump(tag_143)\n    tag_152:\n        /* \"--CODEGEN--\":4000:4071   */\n      tag_153\n        /* \"--CODEGEN--\":4064:4070   */\n      dup2\n        /* \"--CODEGEN--\":4059:4062   */\n      dup6\n        /* \"--CODEGEN--\":4000:4071   */\n      jump(tag_154)\n    tag_153:\n        /* \"--CODEGEN--\":3993:4071   */\n      swap4\n      pop\n        /* \"--CODEGEN--\":4076:4128   */\n      tag_155\n        /* \"--CODEGEN--\":4121:4127   */\n      dup2\n        /* \"--CODEGEN--\":4116:4119   */\n      dup6\n        /* \"--CODEGEN--\":4109:4113   */\n      0x20\n        /* \"--CODEGEN--\":4102:4107   */\n      dup7\n        /* \"--CODEGEN--\":4098:4114   */\n      add\n        /* \"--CODEGEN--\":4076:4128   */\n      jump(tag_147)\n    tag_155:\n        /* \"--CODEGEN--\":4149:4178   */\n      tag_156\n        /* \"--CODEGEN--\":4171:4177   */\n      dup2\n        /* \"--CODEGEN--\":4149:4178   */\n      jump(tag_149)\n    tag_156:\n        /* \"--CODEGEN--\":4144:4147   */\n      dup5\n        /* \"--CODEGEN--\":4140:4179   */\n      add\n        /* \"--CODEGEN--\":4133:4179   */\n      swap2\n      pop\n        /* \"--CODEGEN--\":3929:4184   */\n      pop\n      swap3\n      swap2\n      pop\n      pop\n      jump\n        /* \"--CODEGEN--\":4192:4567   */\n    tag_157:\n      0x00\n        /* \"--CODEGEN--\":4352:4419   */\n      tag_159\n        /* \"--CODEGEN--\":4416:4418   */\n      0x26\n        /* \"--CODEGEN--\":4411:4414   */\n      dup4\n        /* \"--CODEGEN--\":4352:4419   */\n      jump(tag_154)\n    tag_159:\n        /* \"--CODEGEN--\":4345:4419   */\n      swap2\n      pop\n        /* \"--CODEGEN--\":4452:4486   */\n      0x4f776e65722063616e6e6f742072656769737465722061732061207461786920\n        /* \"--CODEGEN--\":4448:4449   */\n      0x00\n        /* \"--CODEGEN--\":4443:4446   */\n      dup4\n        /* \"--CODEGEN--\":4439:4450   */\n      add\n        /* \"--CODEGEN--\":4432:4487   */\n      mstore\n        /* \"--CODEGEN--\":4521:4529   */\n      0x6472697665720000000000000000000000000000000000000000000000000000\n        /* \"--CODEGEN--\":4516:4518   */\n      0x20\n        /* \"--CODEGEN--\":4511:4514   */\n      dup4\n        /* \"--CODEGEN--\":4507:4519   */\n      add\n        /* \"--CODEGEN--\":4500:4530   */\n      mstore\n        /* \"--CODEGEN--\":4558:4560   */\n      0x40\n        /* \"--CODEGEN--\":4553:4556   */\n      dup3\n        /* \"--CODEGEN--\":4549:4561   */\n      add\n        /* \"--CODEGEN--\":4542:4561   */\n      swap1\n      pop\n        /* \"--CODEGEN--\":4338:4567   */\n      swap2\n      swap1\n      pop\n      jump\n        /* \"--CODEGEN--\":4576:4896   */\n    tag_160:\n      0x00\n        /* \"--CODEGEN--\":4736:4803   */\n      tag_162\n        /* \"--CODEGEN--\":4800:4802   */\n      0x14\n        /* \"--CODEGEN--\":4795:4798   */\n      dup4\n        /* \"--CODEGEN--\":4736:4803   */\n      jump(tag_154)\n    tag_162:\n        /* \"--CODEGEN--\":4729:4803   */\n      swap2\n      pop\n        /* \"--CODEGEN--\":4836:4858   */\n      0x4e616d652063616e6e6f7420626520656d707479000000000000000000000000\n        /* \"--CODEGEN--\":4832:4833   */\n      0x00\n        /* \"--CODEGEN--\":4827:4830   */\n      dup4\n        /* \"--CODEGEN--\":4823:4834   */\n      add\n        /* \"--CODEGEN--\":4816:4859   */\n      mstore\n        /* \"--CODEGEN--\":4887:4889   */\n      0x20\n        /* \"--CODEGEN--\":4882:4885   */\n      dup3\n        /* \"--CODEGEN--\":4878:4890   */\n      add\n        /* \"--CODEGEN--\":4871:4890   */\n      swap1\n      pop\n        /* \"--CODEGEN--\":4722:4896   */\n      swap2\n      swap1\n      pop\n      jump\n        /* \"--CODEGEN--\":4905:5230   */\n    tag_163:\n      0x00\n        /* \"--CODEGEN--\":5065:5132   */\n      tag_165\n        /* \"--CODEGEN--\":5129:5131   */\n      0x19\n        /* \"--CODEGEN--\":5124:5127   */\n      dup4\n        /* \"--CODEGEN--\":5065:5132   */\n      jump(tag_154)\n    tag_165:\n        /* \"--CODEGEN--\":5058:5132   */\n      swap2\n      pop\n        /* \"--CODEGEN--\":5165:5192   */\n      0x44726976657220616c7265616479207265676973746572656400000000000000\n        /* \"--CODEGEN--\":5161:5162   */\n      0x00\n        /* \"--CODEGEN--\":5156:5159   */\n      dup4\n        /* \"--CODEGEN--\":5152:5163   */\n      add\n        /* \"--CODEGEN--\":5145:5193   */\n      mstore\n        /* \"--CODEGEN--\":5221:5223   */\n      0x20\n        /* \"--CODEGEN--\":5216:5219   */\n      dup3\n        /* \"--CODEGEN--\":5212:5224   */\n      add\n        /* \"--CODEGEN--\":5205:5224   */\n      swap1\n      pop\n        /* \"--CODEGEN--\":5051:5230   */\n      swap2\n      swap1\n      pop\n      jump\n        /* \"--CODEGEN--\":5239:5562   */\n    tag_166:\n      0x00\n        /* \"--CODEGEN--\":5399:5466   */\n      tag_168\n        /* \"--CODEGEN--\":5463:5465   */\n      0x17\n        /* \"--CODEGEN--\":5458:5461   */\n      dup4\n        /* \"--CODEGEN--\":5399:5466   */\n      jump(tag_154)\n    tag_168:\n        /* \"--CODEGEN--\":5392:5466   */\n      swap2\n      pop\n        /* \"--CODEGEN--\":5499:5524   */\n      0x4e6f7420612076616c6964207461786920647269766572000000000000000000\n        /* \"--CODEGEN--\":5495:5496   */\n      0x00\n        /* \"--CODEGEN--\":5490:5493   */\n      dup4\n        /* \"--CODEGEN--\":5486:5497   */\n      add\n        /* \"--CODEGEN--\":5479:5525   */\n      mstore\n        /* \"--CODEGEN--\":5553:5555   */\n      0x20\n        /* \"--CODEGEN--\":5548:5551   */\n      dup3\n        /* \"--CODEGEN--\":5544:5556   */\n      add\n        /* \"--CODEGEN--\":5537:5556   */\n      swap1\n      pop\n        /* \"--CODEGEN--\":5385:5562   */\n      swap2\n      swap1\n      pop\n      jump\n        /* \"--CODEGEN--\":5570:5792   */\n    tag_24:\n      0x00\n        /* \"--CODEGEN--\":5697:5699   */\n      0x20\n        /* \"--CODEGEN--\":5686:5695   */\n      dup3\n        /* \"--CODEGEN--\":5682:5700   */\n      add\n        /* \"--CODEGEN--\":5674:5700   */\n      swap1\n      pop\n        /* \"--CODEGEN--\":5711:5782   */\n      tag_170\n        /* \"--CODEGEN--\":5779:5780   */\n      0x00\n        /* \"--CODEGEN--\":5768:5777   */\n      dup4\n        /* \"--CODEGEN--\":5764:5781   */\n      add\n        /* \"--CODEGEN--\":5755:5761   */\n      dup5\n        /* \"--CODEGEN--\":5711:5782   */\n      jump(tag_110)\n    tag_170:\n        /* \"--CODEGEN--\":5668:5792   */\n      swap3\n      swap2\n      pop\n      pop\n      jump\n        /* \"--CODEGEN--\":5799:6468   */\n    tag_20:\n      0x00\n        /* \"--CODEGEN--\":6074:6076   */\n      0x40\n        /* \"--CODEGEN--\":6063:6072   */\n      dup3\n        /* \"--CODEGEN--\":6059:6077   */\n      add\n        /* \"--CODEGEN--\":6051:6077   */\n      swap1\n      pop\n        /* \"--CODEGEN--\":6124:6133   */\n      dup2\n        /* \"--CODEGEN--\":6118:6122   */\n      dup2\n        /* \"--CODEGEN--\":6114:6134   */\n      sub\n        /* \"--CODEGEN--\":6110:6111   */\n      0x00\n        /* \"--CODEGEN--\":6099:6108   */\n      dup4\n        /* \"--CODEGEN--\":6095:6112   */\n      add\n        /* \"--CODEGEN--\":6088:6135   */\n      mstore\n        /* \"--CODEGEN--\":6149:6257   */\n      tag_172\n        /* \"--CODEGEN--\":6252:6256   */\n      dup2\n        /* \"--CODEGEN--\":6243:6249   */\n      dup6\n        /* \"--CODEGEN--\":6149:6257   */\n      jump(tag_113)\n    tag_172:\n        /* \"--CODEGEN--\":6141:6257   */\n      swap1\n      pop\n        /* \"--CODEGEN--\":6305:6314   */\n      dup2\n        /* \"--CODEGEN--\":6299:6303   */\n      dup2\n        /* \"--CODEGEN--\":6295:6315   */\n      sub\n        /* \"--CODEGEN--\":6290:6292   */\n      0x20\n        /* \"--CODEGEN--\":6279:6288   */\n      dup4\n        /* \"--CODEGEN--\":6275:6293   */\n      add\n        /* \"--CODEGEN--\":6268:6316   */\n      mstore\n        /* \"--CODEGEN--\":6330:6458   */\n      tag_173\n        /* \"--CODEGEN--\":6453:6457   */\n      dup2\n        /* \"--CODEGEN--\":6444:6450   */\n      dup5\n        /* \"--CODEGEN--\":6330:6458   */\n      jump(tag_127)\n    tag_173:\n        /* \"--CODEGEN--\":6322:6458   */\n      swap1\n      pop\n        /* \"--CODEGEN--\":6045:6468   */\n      swap4\n      swap3\n      pop\n      pop\n      pop\n      jump\n        /* \"--CODEGEN--\":6475:6785   */\n    tag_43:\n      0x00\n        /* \"--CODEGEN--\":6622:6624   */\n      0x20\n        /* \"--CODEGEN--\":6611:6620   */\n      dup3\n        /* \"--CODEGEN--\":6607:6625   */\n      add\n        /* \"--CODEGEN--\":6599:6625   */\n      swap1\n      pop\n        /* \"--CODEGEN--\":6672:6681   */\n      dup2\n        /* \"--CODEGEN--\":6666:6670   */\n      dup2\n        /* \"--CODEGEN--\":6662:6682   */\n      sub\n        /* \"--CODEGEN--\":6658:6659   */\n      0x00\n        /* \"--CODEGEN--\":6647:6656   */\n      dup4\n        /* \"--CODEGEN--\":6643:6660   */\n      add\n        /* \"--CODEGEN--\":6636:6683   */\n      mstore\n        /* \"--CODEGEN--\":6697:6775   */\n      tag_175\n        /* \"--CODEGEN--\":6770:6774   */\n      dup2\n        /* \"--CODEGEN--\":6761:6767   */\n      dup5\n        /* \"--CODEGEN--\":6697:6775   */\n      jump(tag_150)\n    tag_175:\n        /* \"--CODEGEN--\":6689:6775   */\n      swap1\n      pop\n        /* \"--CODEGEN--\":6593:6785   */\n      swap3\n      swap2\n      pop\n      pop\n      jump\n        /* \"--CODEGEN--\":6792:7213   */\n    tag_16:\n      0x00\n        /* \"--CODEGEN--\":6967:6969   */\n      0x40\n        /* \"--CODEGEN--\":6956:6965   */\n      dup3\n        /* \"--CODEGEN--\":6952:6970   */\n      add\n        /* \"--CODEGEN--\":6944:6970   */\n      swap1\n      pop\n        /* \"--CODEGEN--\":7017:7026   */\n      dup2\n        /* \"--CODEGEN--\":7011:7015   */\n      dup2\n        /* \"--CODEGEN--\":7007:7027   */\n      sub\n        /* \"--CODEGEN--\":7003:7004   */\n      0x00\n        /* \"--CODEGEN--\":6992:7001   */\n      dup4\n        /* \"--CODEGEN--\":6988:7005   */\n      add\n        /* \"--CODEGEN--\":6981:7028   */\n      mstore\n        /* \"--CODEGEN--\":7042:7120   */\n      tag_177\n        /* \"--CODEGEN--\":7115:7119   */\n      dup2\n        /* \"--CODEGEN--\":7106:7112   */\n      dup6\n        /* \"--CODEGEN--\":7042:7120   */\n      jump(tag_150)\n    tag_177:\n        /* \"--CODEGEN--\":7034:7120   */\n      swap1\n      pop\n        /* \"--CODEGEN--\":7131:7203   */\n      tag_178\n        /* \"--CODEGEN--\":7199:7201   */\n      0x20\n        /* \"--CODEGEN--\":7188:7197   */\n      dup4\n        /* \"--CODEGEN--\":7184:7202   */\n      add\n        /* \"--CODEGEN--\":7175:7181   */\n      dup5\n        /* \"--CODEGEN--\":7131:7203   */\n      jump(tag_110)\n    tag_178:\n        /* \"--CODEGEN--\":6938:7213   */\n      swap4\n      swap3\n      pop\n      pop\n      pop\n      jump\n        /* \"--CODEGEN--\":7220:7636   */\n    tag_28:\n      0x00\n        /* \"--CODEGEN--\":7420:7422   */\n      0x20\n        /* \"--CODEGEN--\":7409:7418   */\n      dup3\n        /* \"--CODEGEN--\":7405:7423   */\n      add\n        /* \"--CODEGEN--\":7397:7423   */\n      swap1\n      pop\n        /* \"--CODEGEN--\":7470:7479   */\n      dup2\n        /* \"--CODEGEN--\":7464:7468   */\n      dup2\n        /* \"--CODEGEN--\":7460:7480   */\n      sub\n        /* \"--CODEGEN--\":7456:7457   */\n      0x00\n        /* \"--CODEGEN--\":7445:7454   */\n      dup4\n        /* \"--CODEGEN--\":7441:7458   */\n      add\n        /* \"--CODEGEN--\":7434:7481   */\n      mstore\n        /* \"--CODEGEN--\":7495:7626   */\n      tag_180\n        /* \"--CODEGEN--\":7621:7625   */\n      dup2\n        /* \"--CODEGEN--\":7495:7626   */\n      jump(tag_157)\n    tag_180:\n        /* \"--CODEGEN--\":7487:7626   */\n      swap1\n      pop\n        /* \"--CODEGEN--\":7391:7636   */\n      swap2\n      swap1\n      pop\n      jump\n        /* \"--CODEGEN--\":7643:8059   */\n    tag_31:\n      0x00\n        /* \"--CODEGEN--\":7843:7845   */\n      0x20\n        /* \"--CODEGEN--\":7832:7841   */\n      dup3\n        /* \"--CODEGEN--\":7828:7846   */\n      add\n        /* \"--CODEGEN--\":7820:7846   */\n      swap1\n      pop\n        /* \"--CODEGEN--\":7893:7902   */\n      dup2\n        /* \"--CODEGEN--\":7887:7891   */\n      dup2\n        /* \"--CODEGEN--\":7883:7903   */\n      sub\n        /* \"--CODEGEN--\":7879:7880   */\n      0x00\n        /* \"--CODEGEN--\":7868:7877   */\n      dup4\n        /* \"--CODEGEN--\":7864:7881   */\n      add\n        /* \"--CODEGEN--\":7857:7904   */\n      mstore\n        /* \"--CODEGEN--\":7918:8049   */\n      tag_182\n        /* \"--CODEGEN--\":8044:8048   */\n      dup2\n        /* \"--CODEGEN--\":7918:8049   */\n      jump(tag_160)\n    tag_182:\n        /* \"--CODEGEN--\":7910:8049   */\n      swap1\n      pop\n        /* \"--CODEGEN--\":7814:8059   */\n      swap2\n      swap1\n      pop\n      jump\n        /* \"--CODEGEN--\":8066:8482   */\n    tag_34:\n      0x00\n        /* \"--CODEGEN--\":8266:8268   */\n      0x20\n        /* \"--CODEGEN--\":8255:8264   */\n      dup3\n        /* \"--CODEGEN--\":8251:8269   */\n      add\n        /* \"--CODEGEN--\":8243:8269   */\n      swap1\n      pop\n        /* \"--CODEGEN--\":8316:8325   */\n      dup2\n        /* \"--CODEGEN--\":8310:8314   */\n      dup2\n        /* \"--CODEGEN--\":8306:8326   */\n      sub\n        /* \"--CODEGEN--\":8302:8303   */\n      0x00\n        /* \"--CODEGEN--\":8291:8300   */\n      dup4\n        /* \"--CODEGEN--\":8287:8304   */\n      add\n        /* \"--CODEGEN--\":8280:8327   */\n      mstore\n        /* \"--CODEGEN--\":8341:8472   */\n      tag_184\n        /* \"--CODEGEN--\":8467:8471   */\n      dup2\n        /* \"--CODEGEN--\":8341:8472   */\n      jump(tag_163)\n    tag_184:\n        /* \"--CODEGEN--\":8333:8472   */\n      swap1\n      pop\n        /* \"--CODEGEN--\":8237:8482   */\n      swap2\n      swap1\n      pop\n      jump\n        /* \"--CODEGEN--\":8489:8905   */\n    tag_39:\n      0x00\n        /* \"--CODEGEN--\":8689:8691   */\n      0x20\n        /* \"--CODEGEN--\":8678:8687   */\n      dup3\n        /* \"--CODEGEN--\":8674:8692   */\n      add\n        /* \"--CODEGEN--\":8666:8692   */\n      swap1\n      pop\n        /* \"--CODEGEN--\":8739:8748   */\n      dup2\n        /* \"--CODEGEN--\":8733:8737   */\n      dup2\n        /* \"--CODEGEN--\":8729:8749   */\n      sub\n        /* \"--CODEGEN--\":8725:8726   */\n      0x00\n        /* \"--CODEGEN--\":8714:8723   */\n      dup4\n        /* \"--CODEGEN--\":8710:8727   */\n      add\n        /* \"--CODEGEN--\":8703:8750   */\n      mstore\n        /* \"--CODEGEN--\":8764:8895   */\n      tag_186\n        /* \"--CODEGEN--\":8890:8894   */\n      dup2\n        /* \"--CODEGEN--\":8764:8895   */\n      jump(tag_166)\n    tag_186:\n        /* \"--CODEGEN--\":8756:8895   */\n      swap1\n      pop\n        /* \"--CODEGEN--\":8660:8905   */\n      swap2\n      swap1\n      pop\n      jump\n        /* \"--CODEGEN--\":8912:9168   */\n    tag_88:\n      0x00\n        /* \"--CODEGEN--\":8974:8976   */\n      0x40\n        /* \"--CODEGEN--\":8968:8977   */\n      mload\n        /* \"--CODEGEN--\":8958:8977   */\n      swap1\n      pop\n        /* \"--CODEGEN--\":9012:9016   */\n      dup2\n        /* \"--CODEGEN--\":9004:9010   */\n      dup2\n        /* \"--CODEGEN--\":9000:9017   */\n      add\n        /* \"--CODEGEN--\":9111:9117   */\n      dup2\n        /* \"--CODEGEN--\":9099:9109   */\n      dup2\n        /* \"--CODEGEN--\":9096:9118   */\n      lt\n        /* \"--CODEGEN--\":9075:9093   */\n      0xffffffffffffffff\n        /* \"--CODEGEN--\":9063:9073   */\n      dup3\n        /* \"--CODEGEN--\":9060:9094   */\n      gt\n        /* \"--CODEGEN--\":9057:9119   */\n      or\n        /* \"--CODEGEN--\":9054:9056   */\n      iszero\n      tag_188\n      jumpi\n        /* \"--CODEGEN--\":9132:9133   */\n      0x00\n        /* \"--CODEGEN--\":9129:9130   */\n      dup1\n        /* \"--CODEGEN--\":9122:9134   */\n      revert\n        /* \"--CODEGEN--\":9054:9056   */\n    tag_188:\n        /* \"--CODEGEN--\":9152:9162   */\n      dup1\n        /* \"--CODEGEN--\":9148:9150   */\n      0x40\n        /* \"--CODEGEN--\":9141:9163   */\n      mstore\n        /* \"--CODEGEN--\":8952:9168   */\n      pop\n      swap2\n      swap1\n      pop\n      jump\n        /* \"--CODEGEN--\":9175:9497   */\n    tag_87:\n      0x00\n        /* \"--CODEGEN--\":9319:9337   */\n      0xffffffffffffffff\n        /* \"--CODEGEN--\":9311:9317   */\n      dup3\n        /* \"--CODEGEN--\":9308:9338   */\n      gt\n        /* \"--CODEGEN--\":9305:9307   */\n      iszero\n      tag_190\n      jumpi\n        /* \"--CODEGEN--\":9351:9352   */\n      0x00\n        /* \"--CODEGEN--\":9348:9349   */\n      dup1\n        /* \"--CODEGEN--\":9341:9353   */\n      revert\n        /* \"--CODEGEN--\":9305:9307   */\n    tag_190:\n        /* \"--CODEGEN--\":9418:9422   */\n      0x1f\n        /* \"--CODEGEN--\":9414:9423   */\n      not\n        /* \"--CODEGEN--\":9407:9411   */\n      0x1f\n        /* \"--CODEGEN--\":9399:9405   */\n      dup4\n        /* \"--CODEGEN--\":9395:9412   */\n      add\n        /* \"--CODEGEN--\":9391:9424   */\n      and\n        /* \"--CODEGEN--\":9383:9424   */\n      swap1\n      pop\n        /* \"--CODEGEN--\":9482:9486   */\n      0x20\n        /* \"--CODEGEN--\":9476:9480   */\n      dup2\n        /* \"--CODEGEN--\":9472:9487   */\n      add\n        /* \"--CODEGEN--\":9464:9487   */\n      swap1\n      pop\n        /* \"--CODEGEN--\":9242:9497   */\n      swap2\n      swap1\n      pop\n      jump\n        /* \"--CODEGEN--\":9504:9655   */\n    tag_120:\n      0x00\n        /* \"--CODEGEN--\":9590:9593   */\n      dup2\n        /* \"--CODEGEN--\":9582:9593   */\n      swap1\n      pop\n        /* \"--CODEGEN--\":9628:9632   */\n      0x20\n        /* \"--CODEGEN--\":9623:9626   */\n      dup3\n        /* \"--CODEGEN--\":9619:9633   */\n      add\n        /* \"--CODEGEN--\":9611:9633   */\n      swap1\n      pop\n        /* \"--CODEGEN--\":9576:9655   */\n      swap2\n      swap1\n      pop\n      jump\n        /* \"--CODEGEN--\":9662:9823   */\n    tag_134:\n      0x00\n        /* \"--CODEGEN--\":9758:9761   */\n      dup2\n        /* \"--CODEGEN--\":9750:9761   */\n      swap1\n      pop\n        /* \"--CODEGEN--\":9796:9800   */\n      0x20\n        /* \"--CODEGEN--\":9791:9794   */\n      dup3\n        /* \"--CODEGEN--\":9787:9801   */\n      add\n        /* \"--CODEGEN--\":9779:9801   */\n      swap1\n      pop\n        /* \"--CODEGEN--\":9744:9823   */\n      swap2\n      swap1\n      pop\n      jump\n        /* \"--CODEGEN--\":9830:9967   */\n    tag_116:\n      0x00\n        /* \"--CODEGEN--\":9939:9944   */\n      dup2\n        /* \"--CODEGEN--\":9933:9945   */\n      mload\n        /* \"--CODEGEN--\":9923:9945   */\n      swap1\n      pop\n        /* \"--CODEGEN--\":9904:9967   */\n      swap2\n      swap1\n      pop\n      jump\n        /* \"--CODEGEN--\":9974:10121   */\n    tag_130:\n      0x00\n        /* \"--CODEGEN--\":10093:10098   */\n      dup2\n        /* \"--CODEGEN--\":10087:10099   */\n      mload\n        /* \"--CODEGEN--\":10077:10099   */\n      swap1\n      pop\n        /* \"--CODEGEN--\":10058:10121   */\n      swap2\n      swap1\n      pop\n      jump\n        /* \"--CODEGEN--\":10128:10250   */\n    tag_143:\n      0x00\n        /* \"--CODEGEN--\":10222:10227   */\n      dup2\n        /* \"--CODEGEN--\":10216:10228   */\n      mload\n        /* \"--CODEGEN--\":10206:10228   */\n      swap1\n      pop\n        /* \"--CODEGEN--\":10187:10250   */\n      swap2\n      swap1\n      pop\n      jump\n        /* \"--CODEGEN--\":10257:10365   */\n    tag_126:\n      0x00\n        /* \"--CODEGEN--\":10355:10359   */\n      0x20\n        /* \"--CODEGEN--\":10350:10353   */\n      dup3\n        /* \"--CODEGEN--\":10346:10360   */\n      add\n        /* \"--CODEGEN--\":10338:10360   */\n      swap1\n      pop\n        /* \"--CODEGEN--\":10332:10365   */\n      swap2\n      swap1\n      pop\n      jump\n        /* \"--CODEGEN--\":10372:10490   */\n    tag_140:\n      0x00\n        /* \"--CODEGEN--\":10480:10484   */\n      0x20\n        /* \"--CODEGEN--\":10475:10478   */\n      dup3\n        /* \"--CODEGEN--\":10471:10485   */\n      add\n        /* \"--CODEGEN--\":10463:10485   */\n      swap1\n      pop\n        /* \"--CODEGEN--\":10457:10490   */\n      swap2\n      swap1\n      pop\n      jump\n        /* \"--CODEGEN--\":10498:10676   */\n    tag_118:\n      0x00\n        /* \"--CODEGEN--\":10628:10634   */\n      dup3\n        /* \"--CODEGEN--\":10623:10626   */\n      dup3\n        /* \"--CODEGEN--\":10616:10635   */\n      mstore\n        /* \"--CODEGEN--\":10665:10669   */\n      0x20\n        /* \"--CODEGEN--\":10660:10663   */\n      dup3\n        /* \"--CODEGEN--\":10656:10670   */\n      add\n        /* \"--CODEGEN--\":10641:10670   */\n      swap1\n      pop\n        /* \"--CODEGEN--\":10609:10676   */\n      swap3\n      swap2\n      pop\n      pop\n      jump\n        /* \"--CODEGEN--\":10685:10873   */\n    tag_132:\n      0x00\n        /* \"--CODEGEN--\":10825:10831   */\n      dup3\n        /* \"--CODEGEN--\":10820:10823   */\n      dup3\n        /* \"--CODEGEN--\":10813:10832   */\n      mstore\n        /* \"--CODEGEN--\":10862:10866   */\n      0x20\n        /* \"--CODEGEN--\":10857:10860   */\n      dup3\n        /* \"--CODEGEN--\":10853:10867   */\n      add\n        /* \"--CODEGEN--\":10838:10867   */\n      swap1\n      pop\n        /* \"--CODEGEN--\":10806:10873   */\n      swap3\n      swap2\n      pop\n      pop\n      jump\n        /* \"--CODEGEN--\":10882:11035   */\n    tag_145:\n      0x00\n        /* \"--CODEGEN--\":10987:10993   */\n      dup3\n        /* \"--CODEGEN--\":10982:10985   */\n      dup3\n        /* \"--CODEGEN--\":10975:10994   */\n      mstore\n        /* \"--CODEGEN--\":11024:11028   */\n      0x20\n        /* \"--CODEGEN--\":11019:11022   */\n      dup3\n        /* \"--CODEGEN--\":11015:11029   */\n      add\n        /* \"--CODEGEN--\":11000:11029   */\n      swap1\n      pop\n        /* \"--CODEGEN--\":10968:11035   */\n      swap3\n      swap2\n      pop\n      pop\n      jump\n        /* \"--CODEGEN--\":11044:11207   */\n    tag_154:\n      0x00\n        /* \"--CODEGEN--\":11159:11165   */\n      dup3\n        /* \"--CODEGEN--\":11154:11157   */\n      dup3\n        /* \"--CODEGEN--\":11147:11166   */\n      mstore\n        /* \"--CODEGEN--\":11196:11200   */\n      0x20\n        /* \"--CODEGEN--\":11191:11194   */\n      dup3\n        /* \"--CODEGEN--\":11187:11201   */\n      add\n        /* \"--CODEGEN--\":11172:11201   */\n      swap1\n      pop\n        /* \"--CODEGEN--\":11140:11207   */\n      swap3\n      swap2\n      pop\n      pop\n      jump\n        /* \"--CODEGEN--\":11215:11306   */\n    tag_109:\n      0x00\n        /* \"--CODEGEN--\":11277:11301   */\n      tag_203\n        /* \"--CODEGEN--\":11295:11300   */\n      dup3\n        /* \"--CODEGEN--\":11277:11301   */\n      jump(tag_204)\n    tag_203:\n        /* \"--CODEGEN--\":11266:11301   */\n      swap1\n      pop\n        /* \"--CODEGEN--\":11260:11306   */\n      swap2\n      swap1\n      pop\n      jump\n        /* \"--CODEGEN--\":11313:11434   */\n    tag_204:\n      0x00\n        /* \"--CODEGEN--\":11386:11428   */\n      0xffffffffffffffffffffffffffffffffffffffff\n        /* \"--CODEGEN--\":11379:11384   */\n      dup3\n        /* \"--CODEGEN--\":11375:11429   */\n      and\n        /* \"--CODEGEN--\":11364:11429   */\n      swap1\n      pop\n        /* \"--CODEGEN--\":11358:11434   */\n      swap2\n      swap1\n      pop\n      jump\n        /* \"--CODEGEN--\":11442:11587   */\n    tag_91:\n        /* \"--CODEGEN--\":11523:11529   */\n      dup3\n        /* \"--CODEGEN--\":11518:11521   */\n      dup2\n        /* \"--CODEGEN--\":11513:11516   */\n      dup4\n        /* \"--CODEGEN--\":11500:11530   */\n      calldatacopy\n        /* \"--CODEGEN--\":11579:11580   */\n      0x00\n        /* \"--CODEGEN--\":11570:11576   */\n      dup4\n        /* \"--CODEGEN--\":11565:11568   */\n      dup4\n        /* \"--CODEGEN--\":11561:11577   */\n      add\n        /* \"--CODEGEN--\":11554:11581   */\n      mstore\n        /* \"--CODEGEN--\":11493:11587   */\n      pop\n      pop\n      pop\n      jump\n        /* \"--CODEGEN--\":11596:11864   */\n    tag_147:\n        /* \"--CODEGEN--\":11661:11662   */\n      0x00\n        /* \"--CODEGEN--\":11668:11769   */\n    tag_208:\n        /* \"--CODEGEN--\":11682:11688   */\n      dup4\n        /* \"--CODEGEN--\":11679:11680   */\n      dup2\n        /* \"--CODEGEN--\":11676:11689   */\n      lt\n        /* \"--CODEGEN--\":11668:11769   */\n      iszero\n      tag_210\n      jumpi\n        /* \"--CODEGEN--\":11758:11759   */\n      dup1\n        /* \"--CODEGEN--\":11753:11756   */\n      dup3\n        /* \"--CODEGEN--\":11749:11760   */\n      add\n        /* \"--CODEGEN--\":11743:11761   */\n      mload\n        /* \"--CODEGEN--\":11739:11740   */\n      dup2\n        /* \"--CODEGEN--\":11734:11737   */\n      dup5\n        /* \"--CODEGEN--\":11730:11741   */\n      add\n        /* \"--CODEGEN--\":11723:11762   */\n      mstore\n        /* \"--CODEGEN--\":11704:11706   */\n      0x20\n        /* \"--CODEGEN--\":11701:11702   */\n      dup2\n        /* \"--CODEGEN--\":11697:11707   */\n      add\n        /* \"--CODEGEN--\":11692:11707   */\n      swap1\n      pop\n        /* \"--CODEGEN--\":11668:11769   */\n      jump(tag_208)\n    tag_210:\n        /* \"--CODEGEN--\":11784:11790   */\n      dup4\n        /* \"--CODEGEN--\":11781:11782   */\n      dup2\n        /* \"--CODEGEN--\":11778:11791   */\n      gt\n        /* \"--CODEGEN--\":11775:11777   */\n      iszero\n      tag_211\n      jumpi\n        /* \"--CODEGEN--\":11849:11850   */\n      0x00\n        /* \"--CODEGEN--\":11840:11846   */\n      dup5\n        /* \"--CODEGEN--\":11835:11838   */\n      dup5\n        /* \"--CODEGEN--\":11831:11847   */\n      add\n        /* \"--CODEGEN--\":11824:11851   */\n      mstore\n        /* \"--CODEGEN--\":11775:11777   */\n    tag_211:\n        /* \"--CODEGEN--\":11645:11864   */\n      pop\n      pop\n      pop\n      pop\n      jump\n        /* \"--CODEGEN--\":11872:11969   */\n    tag_149:\n      0x00\n        /* \"--CODEGEN--\":11960:11962   */\n      0x1f\n        /* \"--CODEGEN--\":11956:11963   */\n      not\n        /* \"--CODEGEN--\":11951:11953   */\n      0x1f\n        /* \"--CODEGEN--\":11944:11949   */\n      dup4\n        /* \"--CODEGEN--\":11940:11954   */\n      add\n        /* \"--CODEGEN--\":11936:11964   */\n      and\n        /* \"--CODEGEN--\":11926:11964   */\n      swap1\n      pop\n        /* \"--CODEGEN--\":11920:11969   */\n      swap2\n      swap1\n      pop\n      jump\n        /* \"--CODEGEN--\":11977:12094   */\n    tag_81:\n        /* \"--CODEGEN--\":12046:12070   */\n      tag_214\n        /* \"--CODEGEN--\":12064:12069   */\n      dup2\n        /* \"--CODEGEN--\":12046:12070   */\n      jump(tag_109)\n    tag_214:\n        /* \"--CODEGEN--\":12039:12044   */\n      dup2\n        /* \"--CODEGEN--\":12036:12071   */\n      eq\n        /* \"--CODEGEN--\":12026:12028   */\n      tag_215\n      jumpi\n        /* \"--CODEGEN--\":12085:12086   */\n      0x00\n        /* \"--CODEGEN--\":12082:12083   */\n      dup1\n        /* \"--CODEGEN--\":12075:12087   */\n      revert\n        /* \"--CODEGEN--\":12026:12028   */\n    tag_215:\n        /* \"--CODEGEN--\":12020:12094   */\n      pop\n      jump\n\n    auxdata: 0xa264697066735822122071201650d9fc49d14bc5212ffc61580e537d318f4ad1dc87146b6972d0a4f61464736f6c63430006090033\n}\n",
				"bytecode": {
					"linkReferences": {},
					"object": "60806040523480156200001157600080fd5b50336000806101000a81548173ffffffffffffffffffffffffffffffffffffffff021916908373ffffffffffffffffffffffffffffffffffffffff16021790555060405180604001604052806040518060400160405280600581526020017f4f776e657200000000000000000000000000000000000000000000000000000081525081526020016000809054906101000a900473ffffffffffffffffffffffffffffffffffffffff1673ffffffffffffffffffffffffffffffffffffffff16815250600160008060009054906101000a900473ffffffffffffffffffffffffffffffffffffffff1673ffffffffffffffffffffffffffffffffffffffff1673ffffffffffffffffffffffffffffffffffffffff16815260200190815260200160002060008201518160000190805190602001906200015192919062000211565b5060208201518160010160006101000a81548173ffffffffffffffffffffffffffffffffffffffff021916908373ffffffffffffffffffffffffffffffffffffffff1602179055509050506000809054906101000a900473ffffffffffffffffffffffffffffffffffffffff1673ffffffffffffffffffffffffffffffffffffffff167f95678808309e69e2ba08a9f9020f870206d48a2950d5b298533653dd50404cad604051620002039062000302565b60405180910390a262000335565b828054600181600116156101000203166002900490600052602060002090601f016020900481019282601f106200025457805160ff191683800117855562000285565b8280016001018555821562000285579182015b828111156200028457825182559160200191906001019062000267565b5b50905062000294919062000298565b5090565b620002bd91905b80821115620002b95760008160009055506001016200029f565b5090565b90565b6000620002cf60058362000324565b91507f4f776e65720000000000000000000000000000000000000000000000000000006000830152602082019050919050565b600060208201905081810360008301526200031d81620002c0565b9050919050565b600082825260208201905092915050565b610fea80620003456000396000f3fe608060405234801561001057600080fd5b506004361061004c5760003560e01c806321ac45731461005157806363c1fd951461006d578063687dc1db1461009e5780638da5cb5b146100bd575b600080fd5b61006b60048036038101906100669190610a06565b6100db565b005b610087600480360381019061008291906109dd565b6103ea565b604051610095929190610d70565b60405180910390f35b6100a66104c6565b6040516100b4929190610d17565b60405180910390f35b6100c5610889565b6040516100d29190610cfc565b60405180910390f35b6000809054906101000a900473ffffffffffffffffffffffffffffffffffffffff1673ffffffffffffffffffffffffffffffffffffffff163373ffffffffffffffffffffffffffffffffffffffff16141561016b576040517f08c379a000000000000000000000000000000000000000000000000000000000815260040161016290610da0565b60405180910390fd5b60008151116101af576040517f08c379a00000000000000000000000000000000000000000000000000000000081526004016101a690610dc0565b60405180910390fd5b600073ffffffffffffffffffffffffffffffffffffffff16600160003373ffffffffffffffffffffffffffffffffffffffff1673ffffffffffffffffffffffffffffffffffffffff16815260200190815260200160002060010160009054906101000a900473ffffffffffffffffffffffffffffffffffffffff1673ffffffffffffffffffffffffffffffffffffffff1614610280576040517f08c379a000000000000000000000000000000000000000000000000000000000815260040161027790610de0565b60405180910390fd5b610289336108ae565b6102c8576040517f08c379a00000000000000000000000000000000000000000000000000000000081526004016102bf90610e00565b60405180910390fd5b60405180604001604052808281526020013373ffffffffffffffffffffffffffffffffffffffff16815250600160003373ffffffffffffffffffffffffffffffffffffffff1673ffffffffffffffffffffffffffffffffffffffff168152602001908152602001600020600082015181600001908051906020019061034e9291906108cf565b5060208201518160010160006101000a81548173ffffffffffffffffffffffffffffffffffffffff021916908373ffffffffffffffffffffffffffffffffffffffff1602179055509050503373ffffffffffffffffffffffffffffffffffffffff167f95678808309e69e2ba08a9f9020f870206d48a2950d5b298533653dd50404cad826040516103df9190610d4e565b60405180910390a250565b6001602052806000526040600020600091509050806000018054600181600116156101000203166002900480601f0160208091040260200160405190810160405280929190818152602001828054600181600116156101000203166002900480156104965780601f1061046b57610100808354040283529160200191610496565b820191906000526020600020905b81548152906001019060200180831161047957829003601f168201915b5050505050908060010160009054906101000a900473ffffffffffffffffffffffffffffffffffffffff16905082565b60608060008090506000600190505b6009811161058957600073ffffffffffffffffffffffffffffffffffffffff16600160008373ffffffffffffffffffffffffffffffffffffffff1673ffffffffffffffffffffffffffffffffffffffff16815260200190815260200160002060010160009054906101000a900473ffffffffffffffffffffffffffffffffffffffff1673ffffffffffffffffffffffffffffffffffffffff161461057c5781806001019250505b80806001019150506104d5565b508067ffffffffffffffff811180156105a157600080fd5b506040519080825280602002602001820160405280156105d05781602001602082028036833780820191505090505b5092508067ffffffffffffffff811180156105ea57600080fd5b5060405190808252806020026020018201604052801561061e57816020015b60608152602001906001900390816106095790505b50915060008090506000600190505b6009811161087c57600073ffffffffffffffffffffffffffffffffffffffff16600160008373ffffffffffffffffffffffffffffffffffffffff1673ffffffffffffffffffffffffffffffffffffffff16815260200190815260200160002060010160009054906101000a900473ffffffffffffffffffffffffffffffffffffffff1673ffffffffffffffffffffffffffffffffffffffff161461086f57600160008273ffffffffffffffffffffffffffffffffffffffff1673ffffffffffffffffffffffffffffffffffffffff16815260200190815260200160002060010160009054906101000a900473ffffffffffffffffffffffffffffffffffffffff1685838151811061073a57fe5b602002602001019073ffffffffffffffffffffffffffffffffffffffff16908173ffffffffffffffffffffffffffffffffffffffff1681525050600160008273ffffffffffffffffffffffffffffffffffffffff1673ffffffffffffffffffffffffffffffffffffffff1681526020019081526020016000206000018054600181600116156101000203166002900480601f01602080910402602001604051908101604052809291908181526020018280546001816001161561010002031660029004801561084a5780601f1061081f5761010080835404028352916020019161084a565b820191906000526020600020905b81548152906001019060200180831161082d57829003601f168201915b505050505084838151811061085b57fe5b602002602001018190525081806001019250505b808060010191505061062d565b5083839350935050509091565b6000809054906101000a900473ffffffffffffffffffffffffffffffffffffffff1681565b600060018260ff16101580156108c8575060098260ff1611155b9050919050565b828054600181600116156101000203166002900490600052602060002090601f016020900481019282601f1061091057805160ff191683800117855561093e565b8280016001018555821561093e579182015b8281111561093d578251825591602001919060010190610922565b5b50905061094b919061094f565b5090565b61097191905b8082111561096d576000816000905550600101610955565b5090565b90565b60008135905061098381610f9d565b92915050565b600082601f83011261099a57600080fd5b81356109ad6109a882610e4d565b610e20565b915080825260208301602083018583830111156109c957600080fd5b6109d4838284610f4a565b50505092915050565b6000602082840312156109ef57600080fd5b60006109fd84828501610974565b91505092915050565b600060208284031215610a1857600080fd5b600082013567ffffffffffffffff811115610a3257600080fd5b610a3e84828501610989565b91505092915050565b6000610a538383610a73565b60208301905092915050565b6000610a6b8383610b64565b905092915050565b610a7c81610f18565b82525050565b610a8b81610f18565b82525050565b6000610a9c82610e99565b610aa68185610ed4565b9350610ab183610e79565b8060005b83811015610ae2578151610ac98882610a47565b9750610ad483610eba565b925050600181019050610ab5565b5085935050505092915050565b6000610afa82610ea4565b610b048185610ee5565b935083602082028501610b1685610e89565b8060005b85811015610b525784840389528151610b338582610a5f565b9450610b3e83610ec7565b925060208a01995050600181019050610b1a565b50829750879550505050505092915050565b6000610b6f82610eaf565b610b798185610ef6565b9350610b89818560208601610f59565b610b9281610f8c565b840191505092915050565b6000610ba882610eaf565b610bb28185610f07565b9350610bc2818560208601610f59565b610bcb81610f8c565b840191505092915050565b6000610be3602683610f07565b91507f4f776e65722063616e6e6f74207265676973746572206173206120746178692060008301527f64726976657200000000000000000000000000000000000000000000000000006020830152604082019050919050565b6000610c49601483610f07565b91507f4e616d652063616e6e6f7420626520656d7074790000000000000000000000006000830152602082019050919050565b6000610c89601983610f07565b91507f44726976657220616c72656164792072656769737465726564000000000000006000830152602082019050919050565b6000610cc9601783610f07565b91507f4e6f7420612076616c69642074617869206472697665720000000000000000006000830152602082019050919050565b6000602082019050610d116000830184610a82565b92915050565b60006040820190508181036000830152610d318185610a91565b90508181036020830152610d458184610aef565b90509392505050565b60006020820190508181036000830152610d688184610b9d565b905092915050565b60006040820190508181036000830152610d8a8185610b9d565b9050610d996020830184610a82565b9392505050565b60006020820190508181036000830152610db981610bd6565b9050919050565b60006020820190508181036000830152610dd981610c3c565b9050919050565b60006020820190508181036000830152610df981610c7c565b9050919050565b60006020820190508181036000830152610e1981610cbc565b9050919050565b6000604051905081810181811067ffffffffffffffff82111715610e4357600080fd5b8060405250919050565b600067ffffffffffffffff821115610e6457600080fd5b601f19601f8301169050602081019050919050565b6000819050602082019050919050565b6000819050602082019050919050565b600081519050919050565b600081519050919050565b600081519050919050565b6000602082019050919050565b6000602082019050919050565b600082825260208201905092915050565b600082825260208201905092915050565b600082825260208201905092915050565b600082825260208201905092915050565b6000610f2382610f2a565b9050919050565b600073ffffffffffffffffffffffffffffffffffffffff82169050919050565b82818337600083830152505050565b60005b83811015610f77578082015181840152602081019050610f5c565b83811115610f86576000848401525b50505050565b6000601f19601f8301169050919050565b610fa681610f18565b8114610fb157600080fd5b5056fea264697066735822122071201650d9fc49d14bc5212ffc61580e537d318f4ad1dc87146b6972d0a4f61464736f6c63430006090033",
					"opcodes": "PUSH1 0x80 PUSH1 0x40 MSTORE CALLVALUE DUP1 ISZERO PUSH3 0x11 JUMPI PUSH1 0x0 DUP1 REVERT JUMPDEST POP CALLER PUSH1 0x0 DUP1 PUSH2 0x100 EXP DUP2 SLOAD DUP2 PUSH20 0xFFFFFFFFFFFFFFFFFFFFFFFFFFFFFFFFFFFFFFFF MUL NOT AND SWAP1 DUP4 PUSH20 0xFFFFFFFFFFFFFFFFFFFFFFFFFFFFFFFFFFFFFFFF AND MUL OR SWAP1 SSTORE POP PUSH1 0x40 MLOAD DUP1 PUSH1 0x40 ADD PUSH1 0x40 MSTORE DUP1 PUSH1 0x40 MLOAD DUP1 PUSH1 0x40 ADD PUSH1 0x40 MSTORE DUP1 PUSH1 0x5 DUP2 MSTORE PUSH1 0x20 ADD PUSH32 0x4F776E6572000000000000000000000000000000000000000000000000000000 DUP2 MSTORE POP DUP2 MSTORE PUSH1 0x20 ADD PUSH1 0x0 DUP1 SWAP1 SLOAD SWAP1 PUSH2 0x100 EXP SWAP1 DIV PUSH20 0xFFFFFFFFFFFFFFFFFFFFFFFFFFFFFFFFFFFFFFFF AND PUSH20 0xFFFFFFFFFFFFFFFFFFFFFFFFFFFFFFFFFFFFFFFF AND DUP2 MSTORE POP PUSH1 0x1 PUSH1 0x0 DUP1 PUSH1 0x0 SWAP1 SLOAD SWAP1 PUSH2 0x100 EXP SWAP1 DIV PUSH20 0xFFFFFFFFFFFFFFFFFFFFFFFFFFFFFFFFFFFFFFFF AND PUSH20 0xFFFFFFFFFFFFFFFFFFFFFFFFFFFFFFFFFFFFFFFF AND PUSH20 0xFFFFFFFFFFFFFFFFFFFFFFFFFFFFFFFFFFFFFFFF AND DUP2 MSTORE PUSH1 0x20 ADD SWAP1 DUP2 MSTORE PUSH1 0x20 ADD PUSH1 0x0 KECCAK256 PUSH1 0x0 DUP3 ADD MLOAD DUP2 PUSH1 0x0 ADD SWAP1 DUP1 MLOAD SWAP1 PUSH1 0x20 ADD SWAP1 PUSH3 0x151 SWAP3 SWAP2 SWAP1 PUSH3 0x211 JUMP JUMPDEST POP PUSH1 0x20 DUP3 ADD MLOAD DUP2 PUSH1 0x1 ADD PUSH1 0x0 PUSH2 0x100 EXP DUP2 SLOAD DUP2 PUSH20 0xFFFFFFFFFFFFFFFFFFFFFFFFFFFFFFFFFFFFFFFF MUL NOT AND SWAP1 DUP4 PUSH20 0xFFFFFFFFFFFFFFFFFFFFFFFFFFFFFFFFFFFFFFFF AND MUL OR SWAP1 SSTORE POP SWAP1 POP POP PUSH1 0x0 DUP1 SWAP1 SLOAD SWAP1 PUSH2 0x100 EXP SWAP1 DIV PUSH20 0xFFFFFFFFFFFFFFFFFFFFFFFFFFFFFFFFFFFFFFFF AND PUSH20 0xFFFFFFFFFFFFFFFFFFFFFFFFFFFFFFFFFFFFFFFF AND PUSH32 0x95678808309E69E2BA08A9F9020F870206D48A2950D5B298533653DD50404CAD PUSH1 0x40 MLOAD PUSH3 0x203 SWAP1 PUSH3 0x302 JUMP JUMPDEST PUSH1 0x40 MLOAD DUP1 SWAP2 SUB SWAP1 LOG2 PUSH3 0x335 JUMP JUMPDEST DUP3 DUP1 SLOAD PUSH1 0x1 DUP2 PUSH1 0x1 AND ISZERO PUSH2 0x100 MUL SUB AND PUSH1 0x2 SWAP1 DIV SWAP1 PUSH1 0x0 MSTORE PUSH1 0x20 PUSH1 0x0 KECCAK256 SWAP1 PUSH1 0x1F ADD PUSH1 0x20 SWAP1 DIV DUP2 ADD SWAP3 DUP3 PUSH1 0x1F LT PUSH3 0x254 JUMPI DUP1 MLOAD PUSH1 0xFF NOT AND DUP4 DUP1 ADD OR DUP6 SSTORE PUSH3 0x285 JUMP JUMPDEST DUP3 DUP1 ADD PUSH1 0x1 ADD DUP6 SSTORE DUP3 ISZERO PUSH3 0x285 JUMPI SWAP2 DUP3 ADD JUMPDEST DUP3 DUP2 GT ISZERO PUSH3 0x284 JUMPI DUP3 MLOAD DUP3 SSTORE SWAP2 PUSH1 0x20 ADD SWAP2 SWAP1 PUSH1 0x1 ADD SWAP1 PUSH3 0x267 JUMP JUMPDEST JUMPDEST POP SWAP1 POP PUSH3 0x294 SWAP2 SWAP1 PUSH3 0x298 JUMP JUMPDEST POP SWAP1 JUMP JUMPDEST PUSH3 0x2BD SWAP2 SWAP1 JUMPDEST DUP1 DUP3 GT ISZERO PUSH3 0x2B9 JUMPI PUSH1 0x0 DUP2 PUSH1 0x0 SWAP1 SSTORE POP PUSH1 0x1 ADD PUSH3 0x29F JUMP JUMPDEST POP SWAP1 JUMP JUMPDEST SWAP1 JUMP JUMPDEST PUSH1 0x0 PUSH3 0x2CF PUSH1 0x5 DUP4 PUSH3 0x324 JUMP JUMPDEST SWAP2 POP PUSH32 0x4F776E6572000000000000000000000000000000000000000000000000000000 PUSH1 0x0 DUP4 ADD MSTORE PUSH1 0x20 DUP3 ADD SWAP1 POP SWAP2 SWAP1 POP JUMP JUMPDEST PUSH1 0x0 PUSH1 0x20 DUP3 ADD SWAP1 POP DUP2 DUP2 SUB PUSH1 0x0 DUP4 ADD MSTORE PUSH3 0x31D DUP2 PUSH3 0x2C0 JUMP JUMPDEST SWAP1 POP SWAP2 SWAP1 POP JUMP JUMPDEST PUSH1 0x0 DUP3 DUP3 MSTORE PUSH1 0x20 DUP3 ADD SWAP1 POP SWAP3 SWAP2 POP POP JUMP JUMPDEST PUSH2 0xFEA DUP1 PUSH3 0x345 PUSH1 0x0 CODECOPY PUSH1 0x0 RETURN INVALID PUSH1 0x80 PUSH1 0x40 MSTORE CALLVALUE DUP1 ISZERO PUSH2 0x10 JUMPI PUSH1 0x0 DUP1 REVERT JUMPDEST POP PUSH1 0x4 CALLDATASIZE LT PUSH2 0x4C JUMPI PUSH1 0x0 CALLDATALOAD PUSH1 0xE0 SHR DUP1 PUSH4 0x21AC4573 EQ PUSH2 0x51 JUMPI DUP1 PUSH4 0x63C1FD95 EQ PUSH2 0x6D JUMPI DUP1 PUSH4 0x687DC1DB EQ PUSH2 0x9E JUMPI DUP1 PUSH4 0x8DA5CB5B EQ PUSH2 0xBD JUMPI JUMPDEST PUSH1 0x0 DUP1 REVERT JUMPDEST PUSH2 0x6B PUSH1 0x4 DUP1 CALLDATASIZE SUB DUP2 ADD SWAP1 PUSH2 0x66 SWAP2 SWAP1 PUSH2 0xA06 JUMP JUMPDEST PUSH2 0xDB JUMP JUMPDEST STOP JUMPDEST PUSH2 0x87 PUSH1 0x4 DUP1 CALLDATASIZE SUB DUP2 ADD SWAP1 PUSH2 0x82 SWAP2 SWAP1 PUSH2 0x9DD JUMP JUMPDEST PUSH2 0x3EA JUMP JUMPDEST PUSH1 0x40 MLOAD PUSH2 0x95 SWAP3 SWAP2 SWAP1 PUSH2 0xD70 JUMP JUMPDEST PUSH1 0x40 MLOAD DUP1 SWAP2 SUB SWAP1 RETURN JUMPDEST PUSH2 0xA6 PUSH2 0x4C6 JUMP JUMPDEST PUSH1 0x40 MLOAD PUSH2 0xB4 SWAP3 SWAP2 SWAP1 PUSH2 0xD17 JUMP JUMPDEST PUSH1 0x40 MLOAD DUP1 SWAP2 SUB SWAP1 RETURN JUMPDEST PUSH2 0xC5 PUSH2 0x889 JUMP JUMPDEST PUSH1 0x40 MLOAD PUSH2 0xD2 SWAP2 SWAP1 PUSH2 0xCFC JUMP JUMPDEST PUSH1 0x40 MLOAD DUP1 SWAP2 SUB SWAP1 RETURN JUMPDEST PUSH1 0x0 DUP1 SWAP1 SLOAD SWAP1 PUSH2 0x100 EXP SWAP1 DIV PUSH20 0xFFFFFFFFFFFFFFFFFFFFFFFFFFFFFFFFFFFFFFFF AND PUSH20 0xFFFFFFFFFFFFFFFFFFFFFFFFFFFFFFFFFFFFFFFF AND CALLER PUSH20 0xFFFFFFFFFFFFFFFFFFFFFFFFFFFFFFFFFFFFFFFF AND EQ ISZERO PUSH2 0x16B JUMPI PUSH1 0x40 MLOAD PUSH32 0x8C379A000000000000000000000000000000000000000000000000000000000 DUP2 MSTORE PUSH1 0x4 ADD PUSH2 0x162 SWAP1 PUSH2 0xDA0 JUMP JUMPDEST PUSH1 0x40 MLOAD DUP1 SWAP2 SUB SWAP1 REVERT JUMPDEST PUSH1 0x0 DUP2 MLOAD GT PUSH2 0x1AF JUMPI PUSH1 0x40 MLOAD PUSH32 0x8C379A000000000000000000000000000000000000000000000000000000000 DUP2 MSTORE PUSH1 0x4 ADD PUSH2 0x1A6 SWAP1 PUSH2 0xDC0 JUMP JUMPDEST PUSH1 0x40 MLOAD DUP1 SWAP2 SUB SWAP1 REVERT JUMPDEST PUSH1 0x0 PUSH20 0xFFFFFFFFFFFFFFFFFFFFFFFFFFFFFFFFFFFFFFFF AND PUSH1 0x1 PUSH1 0x0 CALLER PUSH20 0xFFFFFFFFFFFFFFFFFFFFFFFFFFFFFFFFFFFFFFFF AND PUSH20 0xFFFFFFFFFFFFFFFFFFFFFFFFFFFFFFFFFFFFFFFF AND DUP2 MSTORE PUSH1 0x20 ADD SWAP1 DUP2 MSTORE PUSH1 0x20 ADD PUSH1 0x0 KECCAK256 PUSH1 0x1 ADD PUSH1 0x0 SWAP1 SLOAD SWAP1 PUSH2 0x100 EXP SWAP1 DIV PUSH20 0xFFFFFFFFFFFFFFFFFFFFFFFFFFFFFFFFFFFFFFFF AND PUSH20 0xFFFFFFFFFFFFFFFFFFFFFFFFFFFFFFFFFFFFFFFF AND EQ PUSH2 0x280 JUMPI PUSH1 0x40 MLOAD PUSH32 0x8C379A000000000000000000000000000000000000000000000000000000000 DUP2 MSTORE PUSH1 0x4 ADD PUSH2 0x277 SWAP1 PUSH2 0xDE0 JUMP JUMPDEST PUSH1 0x40 MLOAD DUP1 SWAP2 SUB SWAP1 REVERT JUMPDEST PUSH2 0x289 CALLER PUSH2 0x8AE JUMP JUMPDEST PUSH2 0x2C8 JUMPI PUSH1 0x40 MLOAD PUSH32 0x8C379A000000000000000000000000000000000000000000000000000000000 DUP2 MSTORE PUSH1 0x4 ADD PUSH2 0x2BF SWAP1 PUSH2 0xE00 JUMP JUMPDEST PUSH1 0x40 MLOAD DUP1 SWAP2 SUB SWAP1 REVERT JUMPDEST PUSH1 0x40 MLOAD DUP1 PUSH1 0x40 ADD PUSH1 0x40 MSTORE DUP1 DUP3 DUP2 MSTORE PUSH1 0x20 ADD CALLER PUSH20 0xFFFFFFFFFFFFFFFFFFFFFFFFFFFFFFFFFFFFFFFF AND DUP2 MSTORE POP PUSH1 0x1 PUSH1 0x0 CALLER PUSH20 0xFFFFFFFFFFFFFFFFFFFFFFFFFFFFFFFFFFFFFFFF AND PUSH20 0xFFFFFFFFFFFFFFFFFFFFFFFFFFFFFFFFFFFFFFFF AND DUP2 MSTORE PUSH1 0x20 ADD SWAP1 DUP2 MSTORE PUSH1 0x20 ADD PUSH1 0x0 KECCAK256 PUSH1 0x0 DUP3 ADD MLOAD DUP2 PUSH1 0x0 ADD SWAP1 DUP1 MLOAD SWAP1 PUSH1 0x20 ADD SWAP1 PUSH2 0x34E SWAP3 SWAP2 SWAP1 PUSH2 0x8CF JUMP JUMPDEST POP PUSH1 0x20 DUP3 ADD MLOAD DUP2 PUSH1 0x1 ADD PUSH1 0x0 PUSH2 0x100 EXP DUP2 SLOAD DUP2 PUSH20 0xFFFFFFFFFFFFFFFFFFFFFFFFFFFFFFFFFFFFFFFF MUL NOT AND SWAP1 DUP4 PUSH20 0xFFFFFFFFFFFFFFFFFFFFFFFFFFFFFFFFFFFFFFFF AND MUL OR SWAP1 SSTORE POP SWAP1 POP POP CALLER PUSH20 0xFFFFFFFFFFFFFFFFFFFFFFFFFFFFFFFFFFFFFFFF AND PUSH32 0x95678808309E69E2BA08A9F9020F870206D48A2950D5B298533653DD50404CAD DUP3 PUSH1 0x40 MLOAD PUSH2 0x3DF SWAP2 SWAP1 PUSH2 0xD4E JUMP JUMPDEST PUSH1 0x40 MLOAD DUP1 SWAP2 SUB SWAP1 LOG2 POP JUMP JUMPDEST PUSH1 0x1 PUSH1 0x20 MSTORE DUP1 PUSH1 0x0 MSTORE PUSH1 0x40 PUSH1 0x0 KECCAK256 PUSH1 0x0 SWAP2 POP SWAP1 POP DUP1 PUSH1 0x0 ADD DUP1 SLOAD PUSH1 0x1 DUP2 PUSH1 0x1 AND ISZERO PUSH2 0x100 MUL SUB AND PUSH1 0x2 SWAP1 DIV DUP1 PUSH1 0x1F ADD PUSH1 0x20 DUP1 SWAP2 DIV MUL PUSH1 0x20 ADD PUSH1 0x40 MLOAD SWAP1 DUP2 ADD PUSH1 0x40 MSTORE DUP1 SWAP3 SWAP2 SWAP1 DUP2 DUP2 MSTORE PUSH1 0x20 ADD DUP3 DUP1 SLOAD PUSH1 0x1 DUP2 PUSH1 0x1 AND ISZERO PUSH2 0x100 MUL SUB AND PUSH1 0x2 SWAP1 DIV DUP1 ISZERO PUSH2 0x496 JUMPI DUP1 PUSH1 0x1F LT PUSH2 0x46B JUMPI PUSH2 0x100 DUP1 DUP4 SLOAD DIV MUL DUP4 MSTORE SWAP2 PUSH1 0x20 ADD SWAP2 PUSH2 0x496 JUMP JUMPDEST DUP3 ADD SWAP2 SWAP1 PUSH1 0x0 MSTORE PUSH1 0x20 PUSH1 0x0 KECCAK256 SWAP1 JUMPDEST DUP2 SLOAD DUP2 MSTORE SWAP1 PUSH1 0x1 ADD SWAP1 PUSH1 0x20 ADD DUP1 DUP4 GT PUSH2 0x479 JUMPI DUP3 SWAP1 SUB PUSH1 0x1F AND DUP3 ADD SWAP2 JUMPDEST POP POP POP POP POP SWAP1 DUP1 PUSH1 0x1 ADD PUSH1 0x0 SWAP1 SLOAD SWAP1 PUSH2 0x100 EXP SWAP1 DIV PUSH20 0xFFFFFFFFFFFFFFFFFFFFFFFFFFFFFFFFFFFFFFFF AND SWAP1 POP DUP3 JUMP JUMPDEST PUSH1 0x60 DUP1 PUSH1 0x0 DUP1 SWAP1 POP PUSH1 0x0 PUSH1 0x1 SWAP1 POP JUMPDEST PUSH1 0x9 DUP2 GT PUSH2 0x589 JUMPI PUSH1 0x0 PUSH20 0xFFFFFFFFFFFFFFFFFFFFFFFFFFFFFFFFFFFFFFFF AND PUSH1 0x1 PUSH1 0x0 DUP4 PUSH20 0xFFFFFFFFFFFFFFFFFFFFFFFFFFFFFFFFFFFFFFFF AND PUSH20 0xFFFFFFFFFFFFFFFFFFFFFFFFFFFFFFFFFFFFFFFF AND DUP2 MSTORE PUSH1 0x20 ADD SWAP1 DUP2 MSTORE PUSH1 0x20 ADD PUSH1 0x0 KECCAK256 PUSH1 0x1 ADD PUSH1 0x0 SWAP1 SLOAD SWAP1 PUSH2 0x100 EXP SWAP1 DIV PUSH20 0xFFFFFFFFFFFFFFFFFFFFFFFFFFFFFFFFFFFFFFFF AND PUSH20 0xFFFFFFFFFFFFFFFFFFFFFFFFFFFFFFFFFFFFFFFF AND EQ PUSH2 0x57C JUMPI DUP2 DUP1 PUSH1 0x1 ADD SWAP3 POP POP JUMPDEST DUP1 DUP1 PUSH1 0x1 ADD SWAP2 POP POP PUSH2 0x4D5 JUMP JUMPDEST POP DUP1 PUSH8 0xFFFFFFFFFFFFFFFF DUP2 GT DUP1 ISZERO PUSH2 0x5A1 JUMPI PUSH1 0x0 DUP1 REVERT JUMPDEST POP PUSH1 0x40 MLOAD SWAP1 DUP1 DUP3 MSTORE DUP1 PUSH1 0x20 MUL PUSH1 0x20 ADD DUP3 ADD PUSH1 0x40 MSTORE DUP1 ISZERO PUSH2 0x5D0 JUMPI DUP2 PUSH1 0x20 ADD PUSH1 0x20 DUP3 MUL DUP1 CALLDATASIZE DUP4 CALLDATACOPY DUP1 DUP3 ADD SWAP2 POP POP SWAP1 POP JUMPDEST POP SWAP3 POP DUP1 PUSH8 0xFFFFFFFFFFFFFFFF DUP2 GT DUP1 ISZERO PUSH2 0x5EA JUMPI PUSH1 0x0 DUP1 REVERT JUMPDEST POP PUSH1 0x40 MLOAD SWAP1 DUP1 DUP3 MSTORE DUP1 PUSH1 0x20 MUL PUSH1 0x20 ADD DUP3 ADD PUSH1 0x40 MSTORE DUP1 ISZERO PUSH2 0x61E JUMPI DUP2 PUSH1 0x20 ADD JUMPDEST PUSH1 0x60 DUP2 MSTORE PUSH1 0x20 ADD SWAP1 PUSH1 0x1 SWAP1 SUB SWAP1 DUP2 PUSH2 0x609 JUMPI SWAP1 POP JUMPDEST POP SWAP2 POP PUSH1 0x0 DUP1 SWAP1 POP PUSH1 0x0 PUSH1 0x1 SWAP1 POP JUMPDEST PUSH1 0x9 DUP2 GT PUSH2 0x87C JUMPI PUSH1 0x0 PUSH20 0xFFFFFFFFFFFFFFFFFFFFFFFFFFFFFFFFFFFFFFFF AND PUSH1 0x1 PUSH1 0x0 DUP4 PUSH20 0xFFFFFFFFFFFFFFFFFFFFFFFFFFFFFFFFFFFFFFFF AND PUSH20 0xFFFFFFFFFFFFFFFFFFFFFFFFFFFFFFFFFFFFFFFF AND DUP2 MSTORE PUSH1 0x20 ADD SWAP1 DUP2 MSTORE PUSH1 0x20 ADD PUSH1 0x0 KECCAK256 PUSH1 0x1 ADD PUSH1 0x0 SWAP1 SLOAD SWAP1 PUSH2 0x100 EXP SWAP1 DIV PUSH20 0xFFFFFFFFFFFFFFFFFFFFFFFFFFFFFFFFFFFFFFFF AND PUSH20 0xFFFFFFFFFFFFFFFFFFFFFFFFFFFFFFFFFFFFFFFF AND EQ PUSH2 0x86F JUMPI PUSH1 0x1 PUSH1 0x0 DUP3 PUSH20 0xFFFFFFFFFFFFFFFFFFFFFFFFFFFFFFFFFFFFFFFF AND PUSH20 0xFFFFFFFFFFFFFFFFFFFFFFFFFFFFFFFFFFFFFFFF AND DUP2 MSTORE PUSH1 0x20 ADD SWAP1 DUP2 MSTORE PUSH1 0x20 ADD PUSH1 0x0 KECCAK256 PUSH1 0x1 ADD PUSH1 0x0 SWAP1 SLOAD SWAP1 PUSH2 0x100 EXP SWAP1 DIV PUSH20 0xFFFFFFFFFFFFFFFFFFFFFFFFFFFFFFFFFFFFFFFF AND DUP6 DUP4 DUP2 MLOAD DUP2 LT PUSH2 0x73A JUMPI INVALID JUMPDEST PUSH1 0x20 MUL PUSH1 0x20 ADD ADD SWAP1 PUSH20 0xFFFFFFFFFFFFFFFFFFFFFFFFFFFFFFFFFFFFFFFF AND SWAP1 DUP2 PUSH20 0xFFFFFFFFFFFFFFFFFFFFFFFFFFFFFFFFFFFFFFFF AND DUP2 MSTORE POP POP PUSH1 0x1 PUSH1 0x0 DUP3 PUSH20 0xFFFFFFFFFFFFFFFFFFFFFFFFFFFFFFFFFFFFFFFF AND PUSH20 0xFFFFFFFFFFFFFFFFFFFFFFFFFFFFFFFFFFFFFFFF AND DUP2 MSTORE PUSH1 0x20 ADD SWAP1 DUP2 MSTORE PUSH1 0x20 ADD PUSH1 0x0 KECCAK256 PUSH1 0x0 ADD DUP1 SLOAD PUSH1 0x1 DUP2 PUSH1 0x1 AND ISZERO PUSH2 0x100 MUL SUB AND PUSH1 0x2 SWAP1 DIV DUP1 PUSH1 0x1F ADD PUSH1 0x20 DUP1 SWAP2 DIV MUL PUSH1 0x20 ADD PUSH1 0x40 MLOAD SWAP1 DUP2 ADD PUSH1 0x40 MSTORE DUP1 SWAP3 SWAP2 SWAP1 DUP2 DUP2 MSTORE PUSH1 0x20 ADD DUP3 DUP1 SLOAD PUSH1 0x1 DUP2 PUSH1 0x1 AND ISZERO PUSH2 0x100 MUL SUB AND PUSH1 0x2 SWAP1 DIV DUP1 ISZERO PUSH2 0x84A JUMPI DUP1 PUSH1 0x1F LT PUSH2 0x81F JUMPI PUSH2 0x100 DUP1 DUP4 SLOAD DIV MUL DUP4 MSTORE SWAP2 PUSH1 0x20 ADD SWAP2 PUSH2 0x84A JUMP JUMPDEST DUP3 ADD SWAP2 SWAP1 PUSH1 0x0 MSTORE PUSH1 0x20 PUSH1 0x0 KECCAK256 SWAP1 JUMPDEST DUP2 SLOAD DUP2 MSTORE SWAP1 PUSH1 0x1 ADD SWAP1 PUSH1 0x20 ADD DUP1 DUP4 GT PUSH2 0x82D JUMPI DUP3 SWAP1 SUB PUSH1 0x1F AND DUP3 ADD SWAP2 JUMPDEST POP POP POP POP POP DUP5 DUP4 DUP2 MLOAD DUP2 LT PUSH2 0x85B JUMPI INVALID JUMPDEST PUSH1 0x20 MUL PUSH1 0x20 ADD ADD DUP2 SWAP1 MSTORE POP DUP2 DUP1 PUSH1 0x1 ADD SWAP3 POP POP JUMPDEST DUP1 DUP1 PUSH1 0x1 ADD SWAP2 POP POP PUSH2 0x62D JUMP JUMPDEST POP DUP4 DUP4 SWAP4 POP SWAP4 POP POP POP SWAP1 SWAP2 JUMP JUMPDEST PUSH1 0x0 DUP1 SWAP1 SLOAD SWAP1 PUSH2 0x100 EXP SWAP1 DIV PUSH20 0xFFFFFFFFFFFFFFFFFFFFFFFFFFFFFFFFFFFFFFFF AND DUP2 JUMP JUMPDEST PUSH1 0x0 PUSH1 0x1 DUP3 PUSH1 0xFF AND LT ISZERO DUP1 ISZERO PUSH2 0x8C8 JUMPI POP PUSH1 0x9 DUP3 PUSH1 0xFF AND GT ISZERO JUMPDEST SWAP1 POP SWAP2 SWAP1 POP JUMP JUMPDEST DUP3 DUP1 SLOAD PUSH1 0x1 DUP2 PUSH1 0x1 AND ISZERO PUSH2 0x100 MUL SUB AND PUSH1 0x2 SWAP1 DIV SWAP1 PUSH1 0x0 MSTORE PUSH1 0x20 PUSH1 0x0 KECCAK256 SWAP1 PUSH1 0x1F ADD PUSH1 0x20 SWAP1 DIV DUP2 ADD SWAP3 DUP3 PUSH1 0x1F LT PUSH2 0x910 JUMPI DUP1 MLOAD PUSH1 0xFF NOT AND DUP4 DUP1 ADD OR DUP6 SSTORE PUSH2 0x93E JUMP JUMPDEST DUP3 DUP1 ADD PUSH1 0x1 ADD DUP6 SSTORE DUP3 ISZERO PUSH2 0x93E JUMPI SWAP2 DUP3 ADD JUMPDEST DUP3 DUP2 GT ISZERO PUSH2 0x93D JUMPI DUP3 MLOAD DUP3 SSTORE SWAP2 PUSH1 0x20 ADD SWAP2 SWAP1 PUSH1 0x1 ADD SWAP1 PUSH2 0x922 JUMP JUMPDEST JUMPDEST POP SWAP1 POP PUSH2 0x94B SWAP2 SWAP1 PUSH2 0x94F JUMP JUMPDEST POP SWAP1 JUMP JUMPDEST PUSH2 0x971 SWAP2 SWAP1 JUMPDEST DUP1 DUP3 GT ISZERO PUSH2 0x96D JUMPI PUSH1 0x0 DUP2 PUSH1 0x0 SWAP1 SSTORE POP PUSH1 0x1 ADD PUSH2 0x955 JUMP JUMPDEST POP SWAP1 JUMP JUMPDEST SWAP1 JUMP JUMPDEST PUSH1 0x0 DUP2 CALLDATALOAD SWAP1 POP PUSH2 0x983 DUP2 PUSH2 0xF9D JUMP JUMPDEST SWAP3 SWAP2 POP POP JUMP JUMPDEST PUSH1 0x0 DUP3 PUSH1 0x1F DUP4 ADD SLT PUSH2 0x99A JUMPI PUSH1 0x0 DUP1 REVERT JUMPDEST DUP2 CALLDATALOAD PUSH2 0x9AD PUSH2 0x9A8 DUP3 PUSH2 0xE4D JUMP JUMPDEST PUSH2 0xE20 JUMP JUMPDEST SWAP2 POP DUP1 DUP3 MSTORE PUSH1 0x20 DUP4 ADD PUSH1 0x20 DUP4 ADD DUP6 DUP4 DUP4 ADD GT ISZERO PUSH2 0x9C9 JUMPI PUSH1 0x0 DUP1 REVERT JUMPDEST PUSH2 0x9D4 DUP4 DUP3 DUP5 PUSH2 0xF4A JUMP JUMPDEST POP POP POP SWAP3 SWAP2 POP POP JUMP JUMPDEST PUSH1 0x0 PUSH1 0x20 DUP3 DUP5 SUB SLT ISZERO PUSH2 0x9EF JUMPI PUSH1 0x0 DUP1 REVERT JUMPDEST PUSH1 0x0 PUSH2 0x9FD DUP5 DUP3 DUP6 ADD PUSH2 0x974 JUMP JUMPDEST SWAP2 POP POP SWAP3 SWAP2 POP POP JUMP JUMPDEST PUSH1 0x0 PUSH1 0x20 DUP3 DUP5 SUB SLT ISZERO PUSH2 0xA18 JUMPI PUSH1 0x0 DUP1 REVERT JUMPDEST PUSH1 0x0 DUP3 ADD CALLDATALOAD PUSH8 0xFFFFFFFFFFFFFFFF DUP2 GT ISZERO PUSH2 0xA32 JUMPI PUSH1 0x0 DUP1 REVERT JUMPDEST PUSH2 0xA3E DUP5 DUP3 DUP6 ADD PUSH2 0x989 JUMP JUMPDEST SWAP2 POP POP SWAP3 SWAP2 POP POP JUMP JUMPDEST PUSH1 0x0 PUSH2 0xA53 DUP4 DUP4 PUSH2 0xA73 JUMP JUMPDEST PUSH1 0x20 DUP4 ADD SWAP1 POP SWAP3 SWAP2 POP POP JUMP JUMPDEST PUSH1 0x0 PUSH2 0xA6B DUP4 DUP4 PUSH2 0xB64 JUMP JUMPDEST SWAP1 POP SWAP3 SWAP2 POP POP JUMP JUMPDEST PUSH2 0xA7C DUP2 PUSH2 0xF18 JUMP JUMPDEST DUP3 MSTORE POP POP JUMP JUMPDEST PUSH2 0xA8B DUP2 PUSH2 0xF18 JUMP JUMPDEST DUP3 MSTORE POP POP JUMP JUMPDEST PUSH1 0x0 PUSH2 0xA9C DUP3 PUSH2 0xE99 JUMP JUMPDEST PUSH2 0xAA6 DUP2 DUP6 PUSH2 0xED4 JUMP JUMPDEST SWAP4 POP PUSH2 0xAB1 DUP4 PUSH2 0xE79 JUMP JUMPDEST DUP1 PUSH1 0x0 JUMPDEST DUP4 DUP2 LT ISZERO PUSH2 0xAE2 JUMPI DUP2 MLOAD PUSH2 0xAC9 DUP9 DUP3 PUSH2 0xA47 JUMP JUMPDEST SWAP8 POP PUSH2 0xAD4 DUP4 PUSH2 0xEBA JUMP JUMPDEST SWAP3 POP POP PUSH1 0x1 DUP2 ADD SWAP1 POP PUSH2 0xAB5 JUMP JUMPDEST POP DUP6 SWAP4 POP POP POP POP SWAP3 SWAP2 POP POP JUMP JUMPDEST PUSH1 0x0 PUSH2 0xAFA DUP3 PUSH2 0xEA4 JUMP JUMPDEST PUSH2 0xB04 DUP2 DUP6 PUSH2 0xEE5 JUMP JUMPDEST SWAP4 POP DUP4 PUSH1 0x20 DUP3 MUL DUP6 ADD PUSH2 0xB16 DUP6 PUSH2 0xE89 JUMP JUMPDEST DUP1 PUSH1 0x0 JUMPDEST DUP6 DUP2 LT ISZERO PUSH2 0xB52 JUMPI DUP5 DUP5 SUB DUP10 MSTORE DUP2 MLOAD PUSH2 0xB33 DUP6 DUP3 PUSH2 0xA5F JUMP JUMPDEST SWAP5 POP PUSH2 0xB3E DUP4 PUSH2 0xEC7 JUMP JUMPDEST SWAP3 POP PUSH1 0x20 DUP11 ADD SWAP10 POP POP PUSH1 0x1 DUP2 ADD SWAP1 POP PUSH2 0xB1A JUMP JUMPDEST POP DUP3 SWAP8 POP DUP8 SWAP6 POP POP POP POP POP POP SWAP3 SWAP2 POP POP JUMP JUMPDEST PUSH1 0x0 PUSH2 0xB6F DUP3 PUSH2 0xEAF JUMP JUMPDEST PUSH2 0xB79 DUP2 DUP6 PUSH2 0xEF6 JUMP JUMPDEST SWAP4 POP PUSH2 0xB89 DUP2 DUP6 PUSH1 0x20 DUP7 ADD PUSH2 0xF59 JUMP JUMPDEST PUSH2 0xB92 DUP2 PUSH2 0xF8C JUMP JUMPDEST DUP5 ADD SWAP2 POP POP SWAP3 SWAP2 POP POP JUMP JUMPDEST PUSH1 0x0 PUSH2 0xBA8 DUP3 PUSH2 0xEAF JUMP JUMPDEST PUSH2 0xBB2 DUP2 DUP6 PUSH2 0xF07 JUMP JUMPDEST SWAP4 POP PUSH2 0xBC2 DUP2 DUP6 PUSH1 0x20 DUP7 ADD PUSH2 0xF59 JUMP JUMPDEST PUSH2 0xBCB DUP2 PUSH2 0xF8C JUMP JUMPDEST DUP5 ADD SWAP2 POP POP SWAP3 SWAP2 POP POP JUMP JUMPDEST PUSH1 0x0 PUSH2 0xBE3 PUSH1 0x26 DUP4 PUSH2 0xF07 JUMP JUMPDEST SWAP2 POP PUSH32 0x4F776E65722063616E6E6F742072656769737465722061732061207461786920 PUSH1 0x0 DUP4 ADD MSTORE PUSH32 0x6472697665720000000000000000000000000000000000000000000000000000 PUSH1 0x20 DUP4 ADD MSTORE PUSH1 0x40 DUP3 ADD SWAP1 POP SWAP2 SWAP1 POP JUMP JUMPDEST PUSH1 0x0 PUSH2 0xC49 PUSH1 0x14 DUP4 PUSH2 0xF07 JUMP JUMPDEST SWAP2 POP PUSH32 0x4E616D652063616E6E6F7420626520656D707479000000000000000000000000 PUSH1 0x0 DUP4 ADD MSTORE PUSH1 0x20 DUP3 ADD SWAP1 POP SWAP2 SWAP1 POP JUMP JUMPDEST PUSH1 0x0 PUSH2 0xC89 PUSH1 0x19 DUP4 PUSH2 0xF07 JUMP JUMPDEST SWAP2 POP PUSH32 0x44726976657220616C7265616479207265676973746572656400000000000000 PUSH1 0x0 DUP4 ADD MSTORE PUSH1 0x20 DUP3 ADD SWAP1 POP SWAP2 SWAP1 POP JUMP JUMPDEST PUSH1 0x0 PUSH2 0xCC9 PUSH1 0x17 DUP4 PUSH2 0xF07 JUMP JUMPDEST SWAP2 POP PUSH32 0x4E6F7420612076616C6964207461786920647269766572000000000000000000 PUSH1 0x0 DUP4 ADD MSTORE PUSH1 0x20 DUP3 ADD SWAP1 POP SWAP2 SWAP1 POP JUMP JUMPDEST PUSH1 0x0 PUSH1 0x20 DUP3 ADD SWAP1 POP PUSH2 0xD11 PUSH1 0x0 DUP4 ADD DUP5 PUSH2 0xA82 JUMP JUMPDEST SWAP3 SWAP2 POP POP JUMP JUMPDEST PUSH1 0x0 PUSH1 0x40 DUP3 ADD SWAP1 POP DUP2 DUP2 SUB PUSH1 0x0 DUP4 ADD MSTORE PUSH2 0xD31 DUP2 DUP6 PUSH2 0xA91 JUMP JUMPDEST SWAP1 POP DUP2 DUP2 SUB PUSH1 0x20 DUP4 ADD MSTORE PUSH2 0xD45 DUP2 DUP5 PUSH2 0xAEF JUMP JUMPDEST SWAP1 POP SWAP4 SWAP3 POP POP POP JUMP JUMPDEST PUSH1 0x0 PUSH1 0x20 DUP3 ADD SWAP1 POP DUP2 DUP2 SUB PUSH1 0x0 DUP4 ADD MSTORE PUSH2 0xD68 DUP2 DUP5 PUSH2 0xB9D JUMP JUMPDEST SWAP1 POP SWAP3 SWAP2 POP POP JUMP JUMPDEST PUSH1 0x0 PUSH1 0x40 DUP3 ADD SWAP1 POP DUP2 DUP2 SUB PUSH1 0x0 DUP4 ADD MSTORE PUSH2 0xD8A DUP2 DUP6 PUSH2 0xB9D JUMP JUMPDEST SWAP1 POP PUSH2 0xD99 PUSH1 0x20 DUP4 ADD DUP5 PUSH2 0xA82 JUMP JUMPDEST SWAP4 SWAP3 POP POP POP JUMP JUMPDEST PUSH1 0x0 PUSH1 0x20 DUP3 ADD SWAP1 POP DUP2 DUP2 SUB PUSH1 0x0 DUP4 ADD MSTORE PUSH2 0xDB9 DUP2 PUSH2 0xBD6 JUMP JUMPDEST SWAP1 POP SWAP2 SWAP1 POP JUMP JUMPDEST PUSH1 0x0 PUSH1 0x20 DUP3 ADD SWAP1 POP DUP2 DUP2 SUB PUSH1 0x0 DUP4 ADD MSTORE PUSH2 0xDD9 DUP2 PUSH2 0xC3C JUMP JUMPDEST SWAP1 POP SWAP2 SWAP1 POP JUMP JUMPDEST PUSH1 0x0 PUSH1 0x20 DUP3 ADD SWAP1 POP DUP2 DUP2 SUB PUSH1 0x0 DUP4 ADD MSTORE PUSH2 0xDF9 DUP2 PUSH2 0xC7C JUMP JUMPDEST SWAP1 POP SWAP2 SWAP1 POP JUMP JUMPDEST PUSH1 0x0 PUSH1 0x20 DUP3 ADD SWAP1 POP DUP2 DUP2 SUB PUSH1 0x0 DUP4 ADD MSTORE PUSH2 0xE19 DUP2 PUSH2 0xCBC JUMP JUMPDEST SWAP1 POP SWAP2 SWAP1 POP JUMP JUMPDEST PUSH1 0x0 PUSH1 0x40 MLOAD SWAP1 POP DUP2 DUP2 ADD DUP2 DUP2 LT PUSH8 0xFFFFFFFFFFFFFFFF DUP3 GT OR ISZERO PUSH2 0xE43 JUMPI PUSH1 0x0 DUP1 REVERT JUMPDEST DUP1 PUSH1 0x40 MSTORE POP SWAP2 SWAP1 POP JUMP JUMPDEST PUSH1 0x0 PUSH8 0xFFFFFFFFFFFFFFFF DUP3 GT ISZERO PUSH2 0xE64 JUMPI PUSH1 0x0 DUP1 REVERT JUMPDEST PUSH1 0x1F NOT PUSH1 0x1F DUP4 ADD AND SWAP1 POP PUSH1 0x20 DUP2 ADD SWAP1 POP SWAP2 SWAP1 POP JUMP JUMPDEST PUSH1 0x0 DUP2 SWAP1 POP PUSH1 0x20 DUP3 ADD SWAP1 POP SWAP2 SWAP1 POP JUMP JUMPDEST PUSH1 0x0 DUP2 SWAP1 POP PUSH1 0x20 DUP3 ADD SWAP1 POP SWAP2 SWAP1 POP JUMP JUMPDEST PUSH1 0x0 DUP2 MLOAD SWAP1 POP SWAP2 SWAP1 POP JUMP JUMPDEST PUSH1 0x0 DUP2 MLOAD SWAP1 POP SWAP2 SWAP1 POP JUMP JUMPDEST PUSH1 0x0 DUP2 MLOAD SWAP1 POP SWAP2 SWAP1 POP JUMP JUMPDEST PUSH1 0x0 PUSH1 0x20 DUP3 ADD SWAP1 POP SWAP2 SWAP1 POP JUMP JUMPDEST PUSH1 0x0 PUSH1 0x20 DUP3 ADD SWAP1 POP SWAP2 SWAP1 POP JUMP JUMPDEST PUSH1 0x0 DUP3 DUP3 MSTORE PUSH1 0x20 DUP3 ADD SWAP1 POP SWAP3 SWAP2 POP POP JUMP JUMPDEST PUSH1 0x0 DUP3 DUP3 MSTORE PUSH1 0x20 DUP3 ADD SWAP1 POP SWAP3 SWAP2 POP POP JUMP JUMPDEST PUSH1 0x0 DUP3 DUP3 MSTORE PUSH1 0x20 DUP3 ADD SWAP1 POP SWAP3 SWAP2 POP POP JUMP JUMPDEST PUSH1 0x0 DUP3 DUP3 MSTORE PUSH1 0x20 DUP3 ADD SWAP1 POP SWAP3 SWAP2 POP POP JUMP JUMPDEST PUSH1 0x0 PUSH2 0xF23 DUP3 PUSH2 0xF2A JUMP JUMPDEST SWAP1 POP SWAP2 SWAP1 POP JUMP JUMPDEST PUSH1 0x0 PUSH20 0xFFFFFFFFFFFFFFFFFFFFFFFFFFFFFFFFFFFFFFFF DUP3 AND SWAP1 POP SWAP2 SWAP1 POP JUMP JUMPDEST DUP3 DUP2 DUP4 CALLDATACOPY PUSH1 0x0 DUP4 DUP4 ADD MSTORE POP POP POP JUMP JUMPDEST PUSH1 0x0 JUMPDEST DUP4 DUP2 LT ISZERO PUSH2 0xF77 JUMPI DUP1 DUP3 ADD MLOAD DUP2 DUP5 ADD MSTORE PUSH1 0x20 DUP2 ADD SWAP1 POP PUSH2 0xF5C JUMP JUMPDEST DUP4 DUP2 GT ISZERO PUSH2 0xF86 JUMPI PUSH1 0x0 DUP5 DUP5 ADD MSTORE JUMPDEST POP POP POP POP JUMP JUMPDEST PUSH1 0x0 PUSH1 0x1F NOT PUSH1 0x1F DUP4 ADD AND SWAP1 POP SWAP2 SWAP1 POP JUMP JUMPDEST PUSH2 0xFA6 DUP2 PUSH2 0xF18 JUMP JUMPDEST DUP2 EQ PUSH2 0xFB1 JUMPI PUSH1 0x0 DUP1 REVERT JUMPDEST POP JUMP INVALID LOG2 PUSH5 0x6970667358 0x22 SLT KECCAK256 PUSH18 0x201650D9FC49D14BC5212FFC61580E537D31 DUP16 0x4A 0xD1 0xDC DUP8 EQ PUSH12 0x6972D0A4F61464736F6C6343 STOP MOD MULMOD STOP CALLER "
				},
				"gasEstimates": {
					"creation": {
						"codeDepositCost": "814800",
						"executionCost": "infinite",
						"totalCost": "infinite"
					},
					"external": {
						"getRegisteredDrivers()": "infinite",
						"owner()": "1258",
						"registerTaxiDriver(string)": "infinite",
						"taxiDrivers(address)": "infinite"
					},
					"internal": {
						"isValidTaxiDriver(address)": "83"
					}
				},
				"methodIdentifiers": {
					"getRegisteredDrivers()": "687dc1db",
					"owner()": "8da5cb5b",
					"registerTaxiDriver(string)": "21ac4573",
					"taxiDrivers(address)": "63c1fd95"
				}
			},
			"storageLayout": {
				"storage": [
					{
						"astId": 4,
						"contract": "contracts/TaxiBase.sol:TaxiRegistry",
						"label": "owner",
						"offset": 0,
						"slot": "0",
						"type": "t_address"
					},
					{
						"astId": 13,
						"contract": "contracts/TaxiBase.sol:TaxiRegistry",
						"label": "taxiDrivers",
						"offset": 0,
						"slot": "1",
						"type": "t_mapping(t_address,t_struct(TaxiDriver)9_storage)"
					}
				],
				"types": {
					"t_address": {
						"encoding": "inplace",
						"label": "address",
						"numberOfBytes": "20"
					},
					"t_mapping(t_address,t_struct(TaxiDriver)9_storage)": {
						"encoding": "mapping",
						"key": "t_address",
						"label": "mapping(address => struct TaxiRegistry.TaxiDriver)",
						"numberOfBytes": "32",
						"value": "t_struct(TaxiDriver)9_storage"
					},
					"t_string_storage": {
						"encoding": "bytes",
						"label": "string",
						"numberOfBytes": "32"
					},
					"t_struct(TaxiDriver)9_storage": {
						"encoding": "inplace",
						"label": "struct TaxiRegistry.TaxiDriver",
						"members": [
							{
								"astId": 6,
								"contract": "contracts/TaxiBase.sol:TaxiRegistry",
								"label": "name",
								"offset": 0,
								"slot": "0",
								"type": "t_string_storage"
							},
							{
								"astId": 8,
								"contract": "contracts/TaxiBase.sol:TaxiRegistry",
								"label": "driverAddress",
								"offset": 0,
								"slot": "1",
								"type": "t_address"
							}
						],
						"numberOfBytes": "64"
					}
				}
			},
			"userdoc": {
				"methods": {}
			}
		}
	}
}