{
	"contracts/TaxiFeeCalculator.sol": {
		"TaxiFeeCalculator": {
			"abi": [
				{
					"inputs": [
						{
							"internalType": "uint256",
							"name": "distance",
							"type": "uint256"
						}
					],
					"name": "calculateRideFee",
					"outputs": [
						{
							"internalType": "uint256",
							"name": "",
							"type": "uint256"
						}
					],
					"stateMutability": "pure",
					"type": "function"
				}
			],
			"devdoc": {
				"methods": {}
			},
			"evm": {
				"assembly": "    /* \"contracts/TaxiFeeCalculator.sol\":64:534  contract TaxiFeeCalculator {\r... */\n  mstore(0x40, 0x80)\n  callvalue\n  dup1\n  iszero\n  tag_1\n  jumpi\n  0x00\n  dup1\n  revert\ntag_1:\n  pop\n  dataSize(sub_0)\n  dup1\n  dataOffset(sub_0)\n  0x00\n  codecopy\n  0x00\n  return\nstop\n\nsub_0: assembly {\n        /* \"contracts/TaxiFeeCalculator.sol\":64:534  contract TaxiFeeCalculator {\r... */\n      mstore(0x40, 0x80)\n      callvalue\n      dup1\n      iszero\n      tag_1\n      jumpi\n      0x00\n      dup1\n      revert\n    tag_1:\n      pop\n      jumpi(tag_2, lt(calldatasize, 0x04))\n      shr(0xe0, calldataload(0x00))\n      dup1\n      0xa063af\n      eq\n      tag_3\n      jumpi\n    tag_2:\n      0x00\n      dup1\n      revert\n        /* \"contracts/TaxiFeeCalculator.sol\":147:531  function calculateRideFee(uint256 distance) external pure returns (uint256) {\r... */\n    tag_3:\n      tag_4\n      0x04\n      dup1\n      calldatasize\n      sub\n      0x20\n      dup2\n      lt\n      iszero\n      tag_5\n      jumpi\n      0x00\n      dup1\n      revert\n    tag_5:\n      dup2\n      add\n      swap1\n      dup1\n      dup1\n      calldataload\n      swap1\n      0x20\n      add\n      swap1\n      swap3\n      swap2\n      swap1\n      pop\n      pop\n      pop\n      tag_6\n      jump\t// in\n    tag_4:\n      mload(0x40)\n      dup1\n      dup3\n      dup2\n      mstore\n      0x20\n      add\n      swap2\n      pop\n      pop\n      mload(0x40)\n      dup1\n      swap2\n      sub\n      swap1\n      return\n    tag_6:\n        /* \"contracts/TaxiFeeCalculator.sol\":214:221  uint256 */\n      0x00\n        /* \"contracts/TaxiFeeCalculator.sol\":250:252  10 */\n      0x0a\n        /* \"contracts/TaxiFeeCalculator.sol\":238:246  distance */\n      dup3\n        /* \"contracts/TaxiFeeCalculator.sol\":238:252  distance <= 10 */\n      gt\n        /* \"contracts/TaxiFeeCalculator.sol\":234:524  if (distance <= 10) {\r... */\n      tag_8\n      jumpi\n        /* \"contracts/TaxiFeeCalculator.sol\":369:370  5 */\n      0x05\n        /* \"contracts/TaxiFeeCalculator.sol\":358:366  distance */\n      dup3\n        /* \"contracts/TaxiFeeCalculator.sol\":358:370  distance * 5 */\n      mul\n        /* \"contracts/TaxiFeeCalculator.sol\":351:370  return distance * 5 */\n      swap1\n      pop\n      jump(tag_7)\n        /* \"contracts/TaxiFeeCalculator.sol\":234:524  if (distance <= 10) {\r... */\n    tag_8:\n        /* \"contracts/TaxiFeeCalculator.sol\":510:511  7 */\n      0x07\n        /* \"contracts/TaxiFeeCalculator.sol\":504:506  10 */\n      0x0a\n        /* \"contracts/TaxiFeeCalculator.sol\":493:501  distance */\n      dup4\n        /* \"contracts/TaxiFeeCalculator.sol\":493:506  distance - 10 */\n      sub\n        /* \"contracts/TaxiFeeCalculator.sol\":492:511  (distance - 10) * 7 */\n      mul\n        /* \"contracts/TaxiFeeCalculator.sol\":481:487  10 * 5 */\n      0x32\n        /* \"contracts/TaxiFeeCalculator.sol\":480:512  (10 * 5) + ((distance - 10) * 7) */\n      add\n        /* \"contracts/TaxiFeeCalculator.sol\":473:512  return (10 * 5) + ((distance - 10) * 7) */\n      swap1\n      pop\n        /* \"contracts/TaxiFeeCalculator.sol\":147:531  function calculateRideFee(uint256 distance) external pure returns (uint256) {\r... */\n    tag_7:\n      swap2\n      swap1\n      pop\n      jump\t// out\n\n    auxdata: 0xa2646970667358221220ff6158d62c8a98a5b61a937bb2c627089403438be0c37d3c0ae380d4286963cc64736f6c63430006090033\n}\n",
				"bytecode": {
					"linkReferences": {},
					"object": "608060405234801561001057600080fd5b5060c68061001f6000396000f3fe6080604052348015600f57600080fd5b506004361060275760003560e01c8062a063af14602c575b600080fd5b605560048036036020811015604057600080fd5b8101908080359060200190929190505050606b565b6040518082815260200191505060405180910390f35b6000600a8211607e57600582029050608b565b6007600a83030260320190505b91905056fea2646970667358221220ff6158d62c8a98a5b61a937bb2c627089403438be0c37d3c0ae380d4286963cc64736f6c63430006090033",
					"opcodes": "PUSH1 0x80 PUSH1 0x40 MSTORE CALLVALUE DUP1 ISZERO PUSH2 0x10 JUMPI PUSH1 0x0 DUP1 REVERT JUMPDEST POP PUSH1 0xC6 DUP1 PUSH2 0x1F PUSH1 0x0 CODECOPY PUSH1 0x0 RETURN INVALID PUSH1 0x80 PUSH1 0x40 MSTORE CALLVALUE DUP1 ISZERO PUSH1 0xF JUMPI PUSH1 0x0 DUP1 REVERT JUMPDEST POP PUSH1 0x4 CALLDATASIZE LT PUSH1 0x27 JUMPI PUSH1 0x0 CALLDATALOAD PUSH1 0xE0 SHR DUP1 PUSH3 0xA063AF EQ PUSH1 0x2C JUMPI JUMPDEST PUSH1 0x0 DUP1 REVERT JUMPDEST PUSH1 0x55 PUSH1 0x4 DUP1 CALLDATASIZE SUB PUSH1 0x20 DUP2 LT ISZERO PUSH1 0x40 JUMPI PUSH1 0x0 DUP1 REVERT JUMPDEST DUP2 ADD SWAP1 DUP1 DUP1 CALLDATALOAD SWAP1 PUSH1 0x20 ADD SWAP1 SWAP3 SWAP2 SWAP1 POP POP POP PUSH1 0x6B JUMP JUMPDEST PUSH1 0x40 MLOAD DUP1 DUP3 DUP2 MSTORE PUSH1 0x20 ADD SWAP2 POP POP PUSH1 0x40 MLOAD DUP1 SWAP2 SUB SWAP1 RETURN JUMPDEST PUSH1 0x0 PUSH1 0xA DUP3 GT PUSH1 0x7E JUMPI PUSH1 0x5 DUP3 MUL SWAP1 POP PUSH1 0x8B JUMP JUMPDEST PUSH1 0x7 PUSH1 0xA DUP4 SUB MUL PUSH1 0x32 ADD SWAP1 POP JUMPDEST SWAP2 SWAP1 POP JUMP INVALID LOG2 PUSH5 0x6970667358 0x22 SLT KECCAK256 SELFDESTRUCT PUSH2 0x58D6 0x2C DUP11 SWAP9 0xA5 0xB6 BYTE SWAP4 PUSH28 0xB2C627089403438BE0C37D3C0AE380D4286963CC64736F6C63430006 MULMOD STOP CALLER "
				},
				"gasEstimates": {
					"creation": {
						"codeDepositCost": "39600",
						"executionCost": "93",
						"totalCost": "39693"
					},
					"external": {
						"calculateRideFee(uint256)": "322"
					}
				},
				"methodIdentifiers": {
					"calculateRideFee(uint256)": "00a063af"
				}
			},
			"storageLayout": {
				"storage": [],
				"types": null
			},
			"userdoc": {
				"methods": {}
			}
		}
	}
}