{
	"data": {
		"bytecode": {
			"linkReferences": {},
			"object": "608060405234801561001057600080fd5b5060c68061001f6000396000f3fe6080604052348015600f57600080fd5b506004361060275760003560e01c8062a063af14602c575b600080fd5b605560048036036020811015604057600080fd5b8101908080359060200190929190505050606b565b6040518082815260200191505060405180910390f35b6000600a8211607e57600582029050608b565b6007600a83030260320190505b91905056fea264697066735822122016e2a2cecc67515dcdcfb3ef10026461ff23893330a526b5cd23b927c69a845264736f6c63430006090033",
			"opcodes": "PUSH1 0x80 PUSH1 0x40 MSTORE CALLVALUE DUP1 ISZERO PUSH2 0x10 JUMPI PUSH1 0x0 DUP1 REVERT JUMPDEST POP PUSH1 0xC6 DUP1 PUSH2 0x1F PUSH1 0x0 CODECOPY PUSH1 0x0 RETURN INVALID PUSH1 0x80 PUSH1 0x40 MSTORE CALLVALUE DUP1 ISZERO PUSH1 0xF JUMPI PUSH1 0x0 DUP1 REVERT JUMPDEST POP PUSH1 0x4 CALLDATASIZE LT PUSH1 0x27 JUMPI PUSH1 0x0 CALLDATALOAD PUSH1 0xE0 SHR DUP1 PUSH3 0xA063AF EQ PUSH1 0x2C JUMPI JUMPDEST PUSH1 0x0 DUP1 REVERT JUMPDEST PUSH1 0x55 PUSH1 0x4 DUP1 CALLDATASIZE SUB PUSH1 0x20 DUP2 LT ISZERO PUSH1 0x40 JUMPI PUSH1 0x0 DUP1 REVERT JUMPDEST DUP2 ADD SWAP1 DUP1 DUP1 CALLDATALOAD SWAP1 PUSH1 0x20 ADD SWAP1 SWAP3 SWAP2 SWAP1 POP POP POP PUSH1 0x6B JUMP JUMPDEST PUSH1 0x40 MLOAD DUP1 DUP3 DUP2 MSTORE PUSH1 0x20 ADD SWAP2 POP POP PUSH1 0x40 MLOAD DUP1 SWAP2 SUB SWAP1 RETURN JUMPDEST PUSH1 0x0 PUSH1 0xA DUP3 GT PUSH1 0x7E JUMPI PUSH1 0x5 DUP3 MUL SWAP1 POP PUSH1 0x8B JUMP JUMPDEST PUSH1 0x7 PUSH1 0xA DUP4 SUB MUL PUSH1 0x32 ADD SWAP1 POP JUMPDEST SWAP2 SWAP1 POP JUMP INVALID LOG2 PUSH5 0x6970667358 0x22 SLT KECCAK256 AND 0xE2 LOG2 0xCE 0xCC PUSH8 0x515DCDCFB3EF1002 PUSH5 0x61FF238933 ADDRESS 0xA5 0x26 0xB5 0xCD 0x23 0xB9 0x27 0xC6 SWAP11 DUP5 MSTORE PUSH5 0x736F6C6343 STOP MOD MULMOD STOP CALLER "
		},
		"gasEstimates": {
			"creation": {
				"codeDepositCost": "39600",
				"executionCost": "93",
				"totalCost": "39693"
			},
			"external": {
				"calculateRideFee(uint256)": "322"
			}
		},
		"methodIdentifiers": {
			"calculateRideFee(uint256)": "00a063af"
		}
	},
	"abi": [
		{
			"inputs": [
				{
					"internalType": "uint256",
					"name": "distance",
					"type": "uint256"
				}
			],
			"name": "calculateRideFee",
			"outputs": [
				{
					"internalType": "uint256",
					"name": "",
					"type": "uint256"
				}
			],
			"stateMutability": "pure",
			"type": "function"
		}
	]
}